:020000040800F2
:100000007055002069020008B71D00083D16000861
:10001000B51D0008990300088B20000800000000AF
:10002000000000000000000000000000A90100081E
:100030009B0300080000000005020008FD1D0008E9
:10004000830200088302000883020008830200087C
:10005000830200088302000883020008830200086C
:100060008302000883020008B3030008830200082B
:10007000830200088302000883020008830200084C
:1000800083020008830200088302000800000000C9
:1000900000000000000000000000000083020008D3
:1000A000830200088302000883020008830200081C
:1000B000830200088302000883020008830200080C
:1000C00083020008830200088302000883020008FC
:1000D0008302000883020008830200080000000079
:1000E0009D0300088302000883020008000000004E
:1000F0000000000000000000000000008302000873
:100100000000000083020008830200088302000848
:1001100000000000000000000000000000000000DF
:10012000830200088302000883020008830200089B
:100130008302000800000000000000000000000032
:100140000000000000000000000000008302000822
:10015000830200088302000883020008830200086B
:100160008302000883020008000000000000000075
:10017000000000000000000000000000000000007F
:1001800000000000830200080000000000000000E2
:1001900083020008DFF80CD000F0ECF800480047BC
:1001A000512A0008705500202C4B19680868B0E8E7
:1001B000F04F80F30988BFF36F8F4FF0000080F39A
:1001C000118870470000000008480068006880F34C
:1001D00008884FF0000080F3148862B661B6BFF360
:1001E0004F8FBFF36F8F00DF00BF00BF08ED00E04F
:1001F000DFF80C00016841F470010160704700BF36
:1002000088ED00E0EFF30980BFF36F8F134B1A689E
:100210001EF0100F08BF20ED108A20E9F04F10608B
:1002200009B44FF0500080F31188BFF34F8FBFF334
:100230006F8F03F045F84FF0000080F3118809BC80
:1002400019680868B0E8F04F1EF0100F08BFB0EC56
:10025000108A80F30988BFF36F8F70472C0000204D
:10026000EFF30580704700000648804706480047C6
:10027000FEE7FEE7FEE7FEE7FEE7FEE7FEE7FEE756
:10028000FEE7FEE7AD1E0008950100082DE9F05FCE
:100290000546002092469B468846064681464024F5
:1002A0001BE0284641464746224600F053F8534695
:1002B0005A46C01A914110D311461846224600F002
:1002C0003AF82D1A67EB01084F462246012000211B
:1002D00000F031F817EB00094E41201EA4F1010493
:1002E000DFDC484631462A464346BDE8F09F40EAF7
:1002F00001039B0703D009E008C9121F08C0042AA4
:10030000FAD203E011F8013B00F8013B521EF9D28A
:100310007047D2B201E000F8012B491EFBD27047B2
:100320000022F6E710B513460A4604461946FFF7C1
:10033000F0FF204610BD202A04DB203A00FA02F12B
:10034000002070479140C2F1200320FA03F31943C3
:1003500090407047202A04DB203A21FA02F0002165
:10036000704721FA02F3D040C2F1200291400843C5
:1003700019467047064C074D06E0E06840F001035F
:1003800094E8070098471034AC42F6D3FFF706FF15
:10039000189A0108389A0108FEE7704710B54FF423
:1003A000806000F027F8BDE810404FF4005000F0E6
:1003B00021B8102000F01EB872B6FEE770B50446F2
:1003C00000F01AF90546601C02D004480078044485
:1003D00000F012F9401BA042FAD370BD1C000020AF
:1003E000102803D102484168491C41607047000051
:1003F00000000020044910B50A68024202D00860DB
:10040000FFF7EEFF10BD0000143C01402DE9F84F4E
:10041000DFF8B8A10022012403254FF00F090AF1EB
:10042000040BAAF1040E00BF0B6804FA02F6334075
:10043000B34273D10F7907F00307012F01D0022FC8
:1004400016D187684FEA420805FA08FC27EA0C072C
:10045000D1F80CC00CFA08FC4CEA070CC0F808C034
:100460004768B7430E79C6F3001696403E43466090
:100470000E79F643B6070DD0C768560005FA06FC9C
:1004800027EA0C07D1F808C00CFA06FC4CEA070C66
:10049000C0F80CC00E7906F00306022E10D1D60863
:1004A00000EB8608D8F8206057074FEAD76C09FAA6
:1004B0000CF7BE430F6907FA0CF73743C8F82070F2
:1004C00006684FEA420C05FA0CF7BE430F7907F0B5
:1004D000030707FA0CF7374307604E6816F4403FEE
:1004E0006DD03B4E376847F480473760366822F05E
:1004F000030706F480460096364E07EB060CDCF840
:10050000086897073F0F09FA07F826EA0806DFF898
:10051000C880404503D14FF000081EE04FE0DFF8EF
:10052000BC80404502D14FF0010816E0DFF8B080F2
:10053000404502D14FF002080FE0DFF8A8804045A7
:1005400002D14FF0030808E0DFF89C80404502D15B
:100550004FF0040801E04FF0070808FA07F848EAEE
:100560000608CCF80888DAF800605746D1F804C0CD
:100570009E435FEACC2C00D51E433E60DBF8006052
:100580005F46D1F804C09E435FEA8C2C00D51E4321
:100590003E60DEF800607746D1F804C09E435FEA13
:1005A0008C3C00D51E433E60084F083F3E68D1F8A2
:1005B00004C09E435FEACC3C00D51E433E60521C03
:1005C000102AFFF431AFBDE8F88F0000083C01406D
:1005D0004438024000300140000002400004024064
:1005E00000080240000C0240001002400AB1816184
:1005F00070470904FBE7000001488068704700006D
:100600001C00002070B5040025D094F83D000025A2
:1006100020B984F83C50204600F0DEFA242084F80B
:100620003D002068016821F0010101602068016837
:1006300041F4004101602068016821F4004101603B
:1006400000F066FC4D4A6168914201D84C4900E0D7
:100650004C49884201D2012070BD4B492368B0FB50
:10066000F1F15E6826F03F060E435E6063689342D8
:1006700006D94FF4967359434FF47A73B1FBF3F1F3
:100680002368491C1E6A26F03F06314319626168DF
:10069000914210D84900401EB0FBF1F2521CC2F347
:1006A0000B02042A01D2042022E0B0FBF1F0401C2E
:1006B000C0F30B001CE0A268F2B301EBC10303EB33
:1006C0000116431EB3FBF6F35B1C43F480431B058A
:1006D00049D092B301EBC10202EB0111401EB0FB05
:1006E000F1F0401CC0F30B0040F4804040F40040A7
:1006F0002168CA694CF6FF739A431043C861D4E974
:10070000071001432068026822F0C0021143016013
:10071000D4E9030101432068826848F2FF339A4319
:1007200011438160D4E9050108432168CA6822F0B9
:10073000FF021043C86001E00EE016E02068016887
:1007400041F0010101602564202084F83D0025630B
:1007500084F83E50002070BD01EB4106431EB3FB00
:10076000F6F35B1CB3E70120C2E701EB4101401E39
:10077000B0FBF1F0401CC0F30B00B7E7A08601000E
:1007800080841E0000093D0040420F002DE9F84F13
:100790001F4690468A460446DDF82890FFF72CFF56
:1007A000054694F83D00202871D119230122704993
:1007B0002046009501F09EF80028F5D194F83C0001
:1007C000012864D0012084F83C0020680168C90732
:1007D00003D1016841F0010101602068016821F442
:1007E00000610160222084F83D00102084F83E0062
:1007F00000262664C4F824806785608D20855D48C6
:10080000E0622B464A465146204600F02FFF002862
:1008100076D1208D584F68B1012814D00228206865
:10082000016816D041F480610160206841698069E7
:1008300000908EE02068416981690091016841F46F
:100840000071016085E02068016821F48061016029
:10085000F0E721F4806101602068016841F40061E3
:10086000E2E7032846D801280AD0022810D04B46D8
:10087000002239462046009501F03CF8C8BB25E02F
:100880002A464946204601F0DBF890BB54E06CE074
:100890004B46002239462046009501F02BF840BB1C
:1008A0002068016841F40071016020680069616A94
:1008B0000870606A401C6062218D491E2185618D2F
:1008C000491E618521680969017039E02068016865
:1008D00021F48061016020680069616A0870606AC3
:1008E000401C6062208D401E2085608D401E60850A
:1008F000CEE705E02A464946204601F0A1F810B1AE
:100900000120BDE8F88F20680069616A0870606A9C
:10091000401C6062208D401E81B22185608D401E8A
:10092000608520684269D243520712D4032903D15B
:10093000016821F48061016020680069616A0870C3
:10094000606A401C6062208D401E2085608D401EC4
:100950006085208D002884D1202084F83D0084F813
:100960003E6084F83C600020CBE70220C9E700002D
:10097000020010000000FFFF040001002DE9F84F05
:100980001F4690468A460446DDF82890FFF734FE5D
:10099000054694F83D0020287FD1192301224049C3
:1009A0002046009500F0A6FF002876D194F83C0080
:1009B000012872D0012084F83C0020680168C90732
:1009C00003D1016841F0010101602068016821F450
:1009D00000610160212084F83D00102084F83E0071
:1009E00000262664C4F824806785608D20852D4804
:1009F000E0622B464A465146204600F0ADFE90B9D3
:100A0000206841698069009036E02A4649462046C0
:100A100001F04EF850B1206C042804D12068016820
:100A200041F4007101600120BDE8F88F606A21681F
:100A300000780861606A401C6062618D491E6185B2
:100A4000218D491E89B2218522685369DB435B07EA
:100A50000BD451B100781061606A401C6062608DF7
:100A6000401E6085208D401E20852A46494620462E
:100A700000F014FF0028CED1208D0028C5D154F8F5
:100A80003D0B016841F400710160202004F81E094B
:100A9000E67766770020C7E7FFE70220C4E700009B
:100AA000020010000000FFFF2DE9FF4F83B09A46BF
:100AB000DDE9119793460446DDF84080FFF79CFD81
:100AC000054694F83D0020287FD119230122404992
:100AD0002046009500F00EFF002876D194F83C00E7
:100AE000012872D0012084F83C0020680168C90701
:100AF00003D1016841F0010101602068016821F41F
:100B000000610160212084F83D00402084F83E000F
:100B100000262664C4F82480A4F82A90608D2085DD
:100B20002C48E062CDE9007553465A4620460499A8
:100B300000F060FE70B930E02A463946204600F0E9
:100B4000B7FF58B1206C042804D12068016841F433
:100B500000710160012007B0BDE8F08F606A216874
:100B600000780861606A401C6062218D491E89B26C
:100B70002185628D521E628522685369DB435B07C3
:100B80000BD469B100781061606A401C6062208DEE
:100B9000401E2085608D401E6085208D0028CBD1B1
:100BA0002A463946204600F079FE0028CAD154F87A
:100BB0003D0B016841F400710160202004F81E091A
:100BC000E67766770020C6E7FFE70220C3E700006C
:100BD000020010000000FFFF2DE9F04186B004463E
:100BE00014216846FFF79CFB23682A4CDFF8A0C05D
:100BF000002528491226032704222748103463457C
:100C000018D10B6843F002030B600968029501F0EC
:100C1000020105913902CDE90016CDE9037269465A
:100C2000FFF7F4FB206840F400102060206800F417
:100C3000001028E0DFF864C0634525D10B6843F05D
:100C400002030B600968029501F0020105914FF45F
:100C50008061CDE90016CDE9037269468046FFF751
:100C6000D5FB0820CDE9000602950920CDE90370E7
:100C700069464046FFF7CAFB206840F480002060C8
:100C8000206800F48000059006B0BDE8F081000007
:100C90000054004030380240000402400058004038
:100CA0000248816802781144816070471C0000206E
:100CB0000B4810B5016841F400710160016841F40E
:100CC00080610160016841F480710160032000F0DF
:100CD00073F80F2000F006F800F024F8002010BD93
:100CE000003C024070B50D4D04464FF47A712878EF
:100CF000B1FBF0F00A490968B1FBF0F000F0B4FB79
:100D000048B9102C07D200222146501E00F034F8BA
:100D100000206C6070BD012070BD00001C00002030
:100D2000280000200C4882B0016841F48041016035
:100D3000006800F4804000900748001F016841F0FF
:100D4000805101600068002200F0805000900F2167
:100D5000901E02B000F010B844380240002809DBB1
:100D600000F01F02012191404009800000F1E020C5
:100D7000C0F8001170470000F0B40E4B1B680C4621
:100D8000C3F30223C3F10705042D00D90425191D5F
:100D9000072901D2002300E0DB1E012606FA05F137
:100DA000491E214099409E40761E16403143F0BCBA
:100DB00001F0F4B90CED00E0064900F00702086804
:100DC0004FF6FF03184040EA0220034A1043086030
:100DD000704700000CED00E00000FA052DE9F04737
:100DE0000E46050065D0DFF81481D8F80000F7B290
:100DF00000F00700B04207D288F80070D8F8000071
:100E000000F00700B04254D128683D4C810712D54C
:100E1000400703D5206840F4E050206028780007A0
:100E200003D5206840F4604020602068A96820F065
:100E3000F000084320602878C0072DD0304968684A
:100E40000839012812D0022813D0032811D00968CC
:100E5000890700292DDA216821F00301014321606F
:100E6000FFF7CAFB814641F2883A0EE00968890320
:100E7000EFE709688901ECE7FFF7BEFBA0EB09018A
:100E8000514502D90320BDE8F0872068696800F069
:100E90000C00B0EB810FEFD1D8F80010404601F004
:100EA0000701B14207D90770006800F00700B0429F
:100EB00001D00120E7E72878400705D52068E968D8
:100EC00020F4E050084320602878000706D5206809
:100ED000296920F4604040EAC100206000F038F841
:100EE0002168084AC1F30311515CC84006490860F3
:100EF00006480068FFF7F6FE0020C4E7003C024009
:100F000008380240E0990108280000202000002055
:100F10000448054900680968044AC1F38221515C0C
:100F2000C84070472800002008380240F0990108A6
:100F30000448054900680968044AC1F34231515C1C
:100F4000C84070472800002008380240F099010886
:100F5000154810B5006810F00C02144813D0411069
:100F6000042A0FD0082A0ED10F4C241F22682368B0
:100F700002F03F025B0207D52068C0F38810A0FB97
:100F8000010106E0084610BD2168C1F38811A1FBEC
:100F900000010023FFF77AF92168C1F30141491CE0
:100FA0004900B0FBF1F010BD083802400024F40005
:100FB0002DE9F84F04006ED02078DFF84C93C0077D
:100FC000A9F104054AD009F104000168C1F38101C7
:100FD000012908D00068C0F3810002280AD1D9F89D
:100FE0000000400206D52868800337D560680028D5
:100FF000E1D033E06068B0F5803F10D0B0F5A02FAD
:10100000286810D020F480302860286820F48020E0
:1010100028606068A8B1FFF7EFFA06460DE028687F
:1010200040F48030F4E740F480202860F7E700BF08
:10103000FFF7E2FA801B642873D828688003F7D58D
:101040000CE0FFF7D9FA064605E000BFFFF7D4FA37
:10105000801B6428F0D828688003F7D42078DFF854
:10106000AC8280074FF0000A3ED5A748001D0168FA
:1010700011F00C0F08D00068C0F3810002280BD1DA
:10108000D9F80000400207D42868800716D5E06828
:10109000012800D112E033E1E068B8B10120C8F8BE
:1010A0000000FFF7A9FA064605E000BFFFF7A4FA23
:1010B000801B0228C0D828688007F7D528682169D6
:1010C00020F0F80040EAC10028600DE0C8F800A058
:1010D000FFF792FA064604E0FFF78EFA801B02281B
:1010E0001FD828688007F7D42078000722D5864FBC
:1010F00087486169703771B101210160FFF77CFA9F
:10110000064604E0FFF778FA801B022809D8386801
:101110008007F7D50EE0C0F800A0FFF76DFA06468D
:1011200005E082E0FFF768FA801B02287DD8386866
:101130008007F7D42078400768D5DFF8CCB10027C6
:101140000BF13C0BDBF80000C0000BD4DBF8001007
:1011500041F08051CBF80010DBF80000012700F0CF
:10116000805000906B4E3068C00510D4306840F459
:1011700080703060FFF740FA009005E0FFF73CFA1E
:101180000099401A022850D83068C005F6D55E4E46
:10119000A0686C3601280FD00528306810D020F0E8
:1011A00001003060306820F004003060A068B8B101
:1011B000FFF722FA00900FE0306840F00100F4E7FA
:1011C00040F004003060F7E7FFF716FA0099411A83
:1011D00041F28830814266D830688007F4D50EE04D
:1011E000FFF70AFA009007E0FFF706FA0099411AA4
:1011F00041F28830814256D830688007F4D42FB14C
:10120000DBF8001021F08051CBF80010A069C8B3C2
:101210003D49091D0968C1F3810102294AD002280C
:10122000504607D0C8F8600000E03CE0FFF7E4F962
:1012300004463BE04746C8F86000FFF7DDF9064684
:1012400005E000BFFFF7D8F9801B02282BD82868DB
:101250008001F7D4D4E907010843A16A2E4A49085E
:1012600002EB0141626A41EA8211084394F82C10B2
:1012700040EA0161C9F8001001203866FFF7BCF9A7
:10128000044606E03EE000BFFFF7B6F9001B022867
:1012900009D828688001F7D534E000BFFFF7ACF922
:1012A000001B022802D90320BDE8F88F28688001BE
:1012B000F4D427E00128F7D0D9F80000E26900F45F
:1012C000800191421CD1226A00F03F01914217D166
:1012D00047F6C071626A0140B1EB821F10D1A26A69
:1012E0004FF0FF3300F4403103EB5202B1EB024FF9
:1012F00006D194F82C1000F07060B0EB016F01D0B3
:101300000120D1E70020CFE7043802400000474227
:10131000800E4742007000400000FFFF70B50400DF
:1013200009D0606A002540B125616561A56294F825
:10133000510040B10CE0012070BD6068B0F5827FC3
:10134000F4D0E561F2E784F85050204600F044F80C
:10135000022084F851002068016821F040010160FA
:10136000A088218900F4827001F404410843A18916
:1013700001F400610843217C01F002010843217D52
:1013800001F001010843218B01F400710843217F22
:1013900001F03801084394F8201001F0800108435F
:1013A000218D01F40051084321680860A0690421DF
:1013B00001EA104094F8241001F01001084321685C
:1013C00048602068C16921F40061C1616565012040
:1013D00084F85100002070BDF0B587B00446142198
:1013E0006846FEF79DFF1C492068884232D11B48A1
:1013F0000024016841F480410160006800F48040ED
:10140000059016481038016841F004010160016838
:1014100001F004010591016841F0020101600068DA
:10142000022500F0020005900C20CDE9000502AA7B
:101430000326052782E8D00069460948FEF7E6FF43
:101440002803CDE9000502AA694682E8D0000548D4
:10145000FEF7DCFF07B0F0BD003800404038024026
:10146000000802400004024010B5401EB0F1807F29
:1014700001D3012010BD4FF0E02460610F216017FF
:1014800000F08CFE0020A06107202061002010BD2C
:1014900070B5040004D094F84100002510B106E0B6
:1014A000012070BD84F84050204600F023F824202D
:1014B00084F841002068C16821F40051C1602046D1
:1014C00000F024FD2068016921F490410161206849
:1014D000416921F02A0141612068C16841F400514D
:1014E000C1606564202084F8410084F8420065638F
:1014F000002070BD30B587B0044614216846FEF761
:101500000FFF224D23680021214A02242148AB42CB
:1015100018D11F4B10331D6845F400351D601B6842
:1015200003F400330593136843F00103136012685A
:1015300002F0010205920C220092CDE901410391D3
:1015400007211CE0144DAB421DD1114B14331D6813
:1015500045F020051D601B6803F020030593136808
:1015600043F001031360126802F0010205924FF488
:10157000C0520092CDE90141032103910821049159
:101580006946FEF743FF07B030BD0000004400404D
:101590003038024000000240001401402DE9F843B9
:1015A000044690F84100984616460D46202802D081
:1015B0000220BDE8F88385B17EB10020606421205F
:1015C00084F84100FFF718F8A6848146E684A068F5
:1015D0002027B0F5805F02D003E00120E9E7206911
:1015E00010B12E4600250EE000260CE0802120469A
:1015F00000F012FDA8B9C6B116F8010B21684860C9
:10160000E08C401EE084E08C4B464FF00002CDF8A9
:1016100000800028EAD14FF04001204600F0FCFC99
:1016200040B184F841700320C3E735F8020BC0F3E2
:101630000800E3E784F841700020BAE7FEE701689C
:101640004A69D24352050FD46FF480624A61002187
:1016500040F8301F202242738173026942F0040275
:101660000261017301207047002070472DE9F84F97
:101670000446C06A1E4693460D4621680A6842F435
:1016800080620A60082807D0012805D010F5803F45
:1016900002D0206B112804D12068016841F48071C8
:1016A00001604FF001195B46002249462046009632
:1016B00000F020F94FF4007840B120680068C005C0
:1016C00001D5C4F840800320BDE8F88F2069DFF819
:1016D00084A0B0F5804F0FD00620216800EAD5170E
:1016E00047F0F000086133465A460AF106012046E9
:1016F00000F048F958BB03E0E8B240F001001CE0FC
:101700002168E8B2086133465A465146204600F047
:1017100039F9E0B92068416981690091016841F4B3
:10172000807101605B46002249462046009600F029
:10173000E1F80028C1D147F0F10021680861334683
:101740005A465146204600F01DF90028BCD0012021
:10175000BAE7000002000100F8B50446C06A1E4660
:101760000D461746082807D0012805D010F5803F00
:1017700002D0206B122804D12068016841F48071E6
:101780000160134600224FF001112046009600F040
:10179000B1F840B120680068C00502D54FF4007070
:1017A00020640320F8BD2069B0F5804F0ED00620DC
:1017B000216800EAD51040F0F000086133463A464F
:1017C0000B49204600F0DEF878B902E005F0FE0093
:1017D00000E0E8B221680861054933463A46891FAE
:1017E000204600F0CFF80028DCD00120F8BD000032
:1017F000080001002DE9F843044600680D46DDE9C4
:10180000089701689846164641F4807101604B467E
:1018100000224FF001112046009700F06BF848B10C
:1018200020680068C00502D54FF4007020640320D2
:10183000BDE8F883216805F0FE0008613B464A4692
:101840001549204600F09EF888B9206841698069F2
:1018500000903A464946204600F02AF948B1206CEB
:10186000042804D12068016841F40071016001205E
:10187000DEE7F5B2B8F1010F09D02168300A08613E
:101880003A464946204600F013F90028E7D120687F
:1018900005610020CCE700000200010070B516468B
:1018A0000D4604461EE02046FFF7C9FE08B10120A0
:1018B00070BD681C16D0FEF79FFE801BA84200D8A2
:1018C00085B920684069C04340070BD5002044F823
:1018D000300F20216173A073216941F02001216143
:1018E0002073E4E720684069C0434007DBD4002050
:1018F00070BD00002DE9F047984617460D46044696
:10190000C1F30746DDF820902AE000BFB8F1FF3FA1
:1019100026D0FEF771FEA0EB0901414502D8B8F1CF
:10192000000F1DD12068012E16D0806925EA000025
:101930000004000C12D00020B84211D1002044F85D
:10194000300F20216173A073216941F020012161D2
:1019500020730120BDE8F0874069E7E70120EBE74D
:101960002068012E0AD0806925EA00000004000CDE
:1019700006D00020B842C9D00020EBE74069F3E769
:101980000120F7E72DE9F047984616460D46044634
:101990004FF000094FF0200AC1F3074723E0206809
:1019A0004069C043400515D42068016841F40071C6
:1019B000016021686FF480604861C4F8309084F859
:1019C0003DA084F83E90216C41F00401216484F82C
:1019D0003C9021E0701C06D0FEF70EFEA0EB080044
:1019E000B04203D816B1012F1FD021E02068012F8B
:1019F00015D0806925EA00000004000C18D000BF53
:101A000044F8309F84F80DA084F80E90216941F0CD
:101A10002001216184F80C900120BDE8F087406925
:101A200025EA00000004000CEAD12068406901E0CA
:101A30002068806925EA00000004000CAFD1ECE7C3
:101A40002DE9F041002590460E460446202728E067
:101A50004069C043C0060CD454F8301B6FF010002E
:101A6000486144F810596777A577206A2062257786
:101A700014E0FEF7C1FDA0EB0800B04200D886B923
:101A800020684069C04340060BD544F8305F677357
:101A9000A573206940F02000206125730120BDE876
:101AA000F08120684169C9434906D1D40020F6E796
:101AB00070B516460D4604461EE02046FFF7BFFDF2
:101AC00008B1012070BD681C16D0FEF795FD801B83
:101AD000A84200D885B920684069C04300060BD5EC
:101AE000002044F8300F20216173A073216941F078
:101AF000200121612073E4E720684069C0430006AB
:101B0000DBD4002070BD000010B596B01C22114936
:101B10006846FEF7ECFB0021684601F051F80E4CD8
:101B20000C491C2260601C3107A8FEF7E0FB002175
:101B300007A801F045F80749A0601C2238310EA81B
:101B4000FEF7D5FB00210EA801F03AF8E06016B0D0
:101B500010BD00008C9901080C0000202DE9F04117
:101B600086B014216846FEF7DBFB4048002401687C
:101B700041F004010160016801F004010591016870
:101B800041F080010160016801F080010591016868
:101B900041F001010160016801F001010591016856
:101BA00041F0020101600068DFF8C48000F002002B
:101BB0000590012220214046FEF718FD2D4F0022FE
:101BC00001213846FEF712FD4FF4407600223146DF
:101BD0004046FEF70BFD4FF400504FF40415CDE9DD
:101BE0000005694602942448FEF710FC1020CDE958
:101BF0000005694602944046FEF708FC202000904C
:101C00000125CDE90154694640460394FEF7FEFBE9
:101C10000095CDE90154694638460394FEF7F6FB7A
:101C20000220CDE90240CDE9006569464046FEF755
:101C3000EDFBA80200904FF48810CDE9010469463D
:101C40004046FEF7E3FB002205210A20FFF794F847
:101C50000A20FFF783F8002205212820FFF78CF8DF
:101C60002820FFF77BF806B0BDE8F081303802404D
:101C70000000024000040240000802400D4810B578
:101C80000B4901600C49416000214FF480428160A2
:101C9000C0E9031241618161C1610162FEF7B2FCDA
:101CA000002803D0BDE81040FEF786BB10BD000041
:101CB00000540040EC120020A08601000D4810B531
:101CC0000B4901600C4941600021A422C0E90212C5
:101CD0004FF48042C0E904218161C1610162FEF7D5
:101CE00091FC002803D0BDE81040FEF765BB10BD95
:101CF0000058004040130020A0860100104810B595
:101D00000E4901604FF4827141600021022281601E
:101D1000C0E903121202C0E905123822C261802212
:101D2000C0E9082181620A21C162FFF7F7FA0028A1
:101D300003D0BDE81040FEF73FBB10BD00380040A7
:101D4000941300200C4810B50A4901604FF4E131AA
:101D50004160002181600C22C160C0E904128161F0
:101D6000C161FFF795FB002803D0BDE81040FEF7E6
:101D700023BB10BD00440040EC1300200C4810B5FC
:101D80000A4901604FF4E1314160002181600C2279
:101D9000C160C0E904128161C161FFF779FB0028CD
:101DA00003D0BDE81040FEF707BB10BD0014014092
:101DB00034140020FEE7FEE7012000F0F5FEFBE70B
:101DC000012000F0F1FEFBE705A000F0D7F909487B
:101DD00001F0D2FF08490870064800F09FFD00009E
:101DE00052616E67696E67207374617274730D0A55
:101DF00000000000980000200000002010B5FEF751
:101E00004FFF02F04FF9012803D0BDE8104002F067
:101E1000DBB810BD30B593B030216846FEF780FACC
:101E200014210CA8FEF77CFA1E480024016841F03A
:101E300080510160006800F0805011901A480168DC
:101E400021F4404141F4004101600068022500F4A2
:101E500040401190012003901020009506950490B9
:101E6000CDE907404FF4A870099004200A9007209C
:101E70000B906846FFF79CF808B172B6FEE70F209A
:101E8000CDE90C054FF48050CDE90E4002210CA89D
:101E90001094FEF7A3FF002801D072B6FEE713B03E
:101EA00030BD000040380240007000400248016828
:101EB00041F470010160704788ED00E001680C3169
:101EC00051E8002F22F4907241E80023002BF5D155
:101ED0000168143151E8002F22F0010241E800238B
:101EE000002BF5D1016B012909D101680C3151E8B2
:101EF000002F22F0100241E80023002BF5D1202111
:101F000080F84210002101637047000070B504465C
:101F100000680169E26821F44051114301612169BF
:101F2000A068E26908436169114308432168CA68EF
:101F300049F20C639A430243CA6020684169A2696E
:101F400021F440711143416131492068884202D037
:101F50003049884202D1FEF7EBFF01E0FEF7D8FFDF
:101F6000E2690023192164253226B2F5004F626828
:101F700028D0A0FB0101930F9200FEF787F90146DC
:101F8000B0FBF5F06FF01802504301EB800006EB58
:101F90000010B0FBF5F000F0F002B1FBF5F002EB41
:101FA0000012B1FBF5F06FF01803584301EB80000D
:101FB00006EB0010B0FBF5F000F00F0021681044B4
:101FC000886070BDA0FB010192185B41FEF75EF9CD
:101FD0000146B0FBF5F00201B1FBF5F06FF018031C
:101FE000584301EB800006EBC000B0FBF5F000F0B9
:101FF000F80002EB4002B1FBF5F0584301EB800022
:1020000006EBC000B0FBF5F000F00700D6E70000DB
:1020100000100140001401402DE9F843984617468E
:102020000D460446089E24E0701C22D0FEF7E4FA18
:10203000A0EB0800B0421AD8CEB12068C1684907A9
:1020400017D5802D15D0402D13D00168C94309073D
:102050000FD401680025406800902046FFF72EFF4E
:102060000820606484F840500120BDE8F883032014
:10207000FBE72068006835EA000004D00020B84281
:10208000D2D00020F1E70120F9E7FEE7FEB50446D3
:10209000080A8DF80400642615468DF80510009690
:1020A0002188022301AA0748FEF768FC00962188D0
:1020B000012302AA0348FEF769FB9DF80810297066
:1020C000FEBD0000EC1200202DE9FC410446080A88
:1020D0008DF8040064261D4690468DF80510009684
:1020E0002188022301AA0748FEF748FC074600960C
:1020F000ABB2218842460348FEF748FB3844C0B2E1
:10210000BDE8FC81EC12002030B5002208E0841804
:102110002368E5781BBA23F0FF032B432360121DCD
:102120008A42F4D330BD10B50846FEF747F90020C7
:1021300010BD00001CB50B0A8DF804308DF8051099
:102140008DF80620642100910188032301AA02482A
:10215000FEF714FC1CBD0000EC1200203EB54FF64B
:10216000FF749BB28DE81C0000880A4601461023CC
:102170000148FEF799FC3EBDEC1200200FB4054B60
:1021800010B503A9044A029800F028F810BC5DF8C5
:1021900014FB000005290008940000200907090E1F
:1021A000002804DB00F1E02080F80014704700F004
:1021B0000F0000F1E02080F8141D704702E008C80D
:1021C000121F08C1002AFAD170477047002001E0B1
:1021D00001C1121F002AFBD1704700002DE9FF4FFB
:1021E0008DB00F460546002606E025280BD0DDE918
:1021F0000F1290476D1C761C28780028F5D111B07D
:102200003046BDE8F08F0024A246A1460122EC49E9
:1022100000E0044315F8013F203B02FA03F00842B6
:10222000F7D128782A2810D06FF02F022878A0F153
:102230003001092914D80AEB8A0102EB410144F06C
:10224000020400EB010A6D1CF0E701CF5FEA000A0F
:1022500003D544F40054CAF1000A44F002046D1C92
:1022600028782E2817D115F8010F44F004042A28E5
:102270000ED06FF02F022878A0F1300109290AD87A
:1022800009EB890102EB410100EB01096D1CF2E74A
:1022900057F8049B6D1C28786C280FD006DC4C285E
:1022A00017D068280DD06A2814D104E0742810D003
:1022B0007A280FD10DE044F400140AE044F48014AD
:1022C00001E044F440146978814202D104F580149D
:1022D0006D1C6D1C2A786E2A1FD00CDC632A31D04D
:1022E00004DC002A8BD0582A11D1A3E0642A68D0DC
:1022F000692A0CD165E0732A2ED004DC6F2A73D0D2
:10230000702A04D19BE0752A6FD0782A6ED01046CF
:10231000DDE90F129047761C50E1C4F30250022809
:1023200006D0032809D0042801CF09D0066045E172
:1023300001CFF117C0E9006140E101CF06803DE126
:1023400006703BE117F8040B8DF8000000208DF8B3
:102350000100EB46012003E057F804BB4FF0FF30CB
:1023600061074FF0000102D40DE008F10101884639
:1023700049450FDA8045F8DB1BF808100029F4D135
:1023800008E008F1010188468142FADB1BF80810D9
:102390000029F6D1DDE90F23AAEB0800814621468A
:1023A00000F036F9304400EB080604E0DDE90F12D6
:1023B0001BF8010B9047B8F10108F7D221464846B7
:1023C000F7E00A21C4F302534FF0000B0891022BEF
:1023D00004D001CFC117032B09D00AE0FF1D27F05D
:1023E0000707F7E8020108E032E01FE020E000B252
:1023F000C117042B01D140B2C117031E71F10003B4
:1024000007DA4FF0000CD0EB0C006CEB01012D2330
:1024100002E0230504D52B238DF82430012303E0AB
:10242000E30701D02023F7E7984658E00A2110E09F
:1024300010210EE010204FF0000B08900CE010214E
:102440004FF0000B44F004044FF00809089103E03A
:1024500008214FF0000B0891C4F30253022B04D063
:1024600001CF0021032B06D006E0FF1D27F0070750
:10247000F7E8020103E080B2042B00D1C0B24FF0B4
:10248000000823072BD5702A07D0DDF820C08CF078
:10249000100C5CEA0B0C05D00EE040238DF82430C4
:1024A000012308E050EA010306D030238DF82430E0
:1024B0008DF8252002239846DDF820C08CF0080C0A
:1024C0005CEA0B0C0BD150EA010301D1630706D57E
:1024D00030238DF824304FF00108A9F10109582A62
:1024E00004D038A20B9208AA0A920BE03AA2F9E7AC
:1024F0005B46089AFDF7CAFE0B9B9B5C0A9A521E2C
:102500000A92137050EA0102F2D10A98ADEB000072
:1025100000F1200B600702D524F4803401E04FF075
:102520000109D94502DDA9EB0B0000E0002000EB1A
:102530000B0141440890AAEB010AE00306D4DDE94F
:102540000F232146504600F063F806444FF000097F
:1025500008E009A911F80900DDE90F12904709F117
:102560000109761CC145F4DBE0030CD5DDE90F233E
:102570002146504600F04CF8064404E0DDE90F1215
:1025800030209047761C0899481E08900029F5DCF9
:1025900008E00A980A990078491C0A91DDE90F12AF
:1025A0009047761CBBF10001ABF1010BF1DC214639
:1025B0005046DDE90F2300F019F806446D1C1BE6B8
:1025C0000928010030313233343536373839616209
:1025D00063646566000000003031323334353637CD
:1025E0003839414243444546000000002DE9F0419E
:1025F000044600251E461746880404D405E03946E3
:102600002020B0476D1C641EF9D52846BDE8F08136
:102610002DE9F041044600251E469046C80301D529
:10262000302700E02027880404D505E041463846DD
:10263000B0476D1C641EF9D52846BDE8F0812DE930
:10264000FF5F0024DDF83CB08A460546264600F5CB
:10265000A069871853464A4628460399FFF734FD78
:1026600040EA04080A212846FFF75DFD40EA080019
:102670000446C82E02D340F0010411E0BAF1040F61
:1026800006D395F802057F2802D344F0420407E000
:1026900097F800050E99761C0840F6B25845D9D136
:1026A00004B02046BDE8F09F2DE9F04F0F460446E8
:1026B00050A14EA0D1E90081D0E90056E3B089468F
:1026C0004FF4F47B04F5A0604FF0000A5A4604F181
:1026D00010010090FDF70BFE102F5ED104F5A260F3
:1026E000594660C00098FFF70FFD04F23C513A01D3
:1026F00002A86291FDF7FBFD04F5C861802242A8A3
:102700000191FDF7F4FD002102AB42AA0020450033
:1027100005EB011503EB850653F82570D6F804C0C8
:102720006744D6E908C666443E44B70800EB810614
:10273000401C43F8267032F9157002EB450540B293
:10274000B5F902C06744B5F910C0B5F91250654437
:102750003D44EF1705EB9775AD1022F8165004288D
:10276000D5DB491C49B20429D0DB602102F12000ED
:10277000FDF7D6FDC02112A8FDF7D2FD4FF48072FF
:1027800002A96298FDF7B3FD802242A90198FDF7E6
:10279000AEFD59460098FFF7B7FC00204FF4F272E7
:1027A0002118401C91F8083580B281F8003590421C
:1027B000F6D3C4F8E496C4F8E0865B4642F61861A6
:1027C0002046009AFFF7CAFC40EA0A050321FF20D1
:1027D000CDE900014FF43053012204212046FFF7D8
:1027E0002EFF63B02843BDE8F08F00000F04040003
:1027F000081010070000000F030101E42DE9F34F5A
:102800003BA10446D1E900813BA0C3B0D0E90067F9
:102810003BA08946D0F800A004F5A0604FF0000B63
:102820004FF4427204F5FC710546FDF760FD4498D3
:10283000102843D1C4F80C95C4F808854FF44278A9
:1028400041462846C5E90867FFF75EFC4FF48079EA
:1028500004F234514A4602A80091FDF748FD0021D8
:1028600002AA0020430003EB011352F8236002EB9D
:1028700083035F683E44D3E908733B44334400EB71
:1028800081069B08401C40B242F826300428E9DB50
:10289000491C49B20429E4DBC02102F14000FDF7E4
:1028A0003FFD4A4602A90098FDF721FD4146284612
:1028B000FFF72AFC0020C4F834A6A8674FF442733F
:1028C0002A4642F6F8412046FFF748FC40EA0B054D
:1028D0000321FF20CDE900014FF4305301220421F0
:1028E0002046FFF7ACFE45B02843BDE8F08F00005E
:1028F0000F040417081010070078000800000008F3
:10290000A0FC010013B54FF47A7301226946024816
:10291000FEF744FE00981CBD341400208246DFF808
:102920008490DFF88480214D1E49214800F0F6FC98
:1029300088F8000099F80000444600282ED01D4970
:10294000504600F0D8FE20701849504600F0EEFDC9
:1029500020700024174F1AE005EB84002E194368FD
:1029600096F80421214614A0FFF708FC96F804010C
:1029700048B105EB440096F88414B0F9C4231DA0B7
:10298000FFF7FCFB02E026A0FFF7F8FB641C387899
:102990008442E1DB2DA0FFF7F1FBC5E70520FDF741
:1029A0000DFDC1E70800002000000020480B0020BA
:1029B00098000020090000205A6F6E65203A2025FB
:1029C00032642C204E622074617267657473203A01
:1029D000202532752C20416D6269656E74203A2085
:1029E00025346C75204B6370732F73706164732C86
:1029F00020000000546172676574207374617475FF
:102A000073203A202533752C2044697374616E63FA
:102A100065203A20253464206D6D0D0A0000000009
:102A200054617267657420737461747573203A2001
:102A30003235352C2044697374616E6365203A2009
:102A40004E6F207461726765740D0A000D0A0000F4
:102A500070B5FEF72DF9FFF7DDF9FFF77FF8FFF707
:102A60000DF9FFF76FF9FFF789F9FFF727F9FFF77E
:102A700045F9194D522019492880284601F00CF9D2
:102A8000164C641E2070607860B115A0FFF776FBCD
:102A9000284600F043FE207050B11DA0FFF76EFBEA
:102AA000207870BD298822A0FFF768FBFF2070BD49
:102AB0002CA130A0FFF762FB0221074801F017F9B3
:102AC00020700121044801F022F92070FFF71CF862
:102AD00000F071F8FEE700009800002001000020DF
:102AE00053656E736F7220696E697469616C697A7F
:102AF000696E672C20706C656173652077616974FD
:102B000020666577207365636F6E64730D0A00003D
:102B1000564C35334C37435820554C44204C6F614C
:102B200064696E67206661696C65640D0A00000067
:102B3000564C35334C374358206E6F74206465749F
:102B40006563746564206174207265717565737462
:102B50006564206164647265737320283078257819
:102B6000290D0A00564C35334C3743585F322E300E
:102B70002E300000564C35334C37435820554C44CA
:102B80002072656164792021202856657273696F0F
:102B90006E203A202573290D0A000000014600200E
:102BA000842900D0C81C704710B500B9012000F07E
:102BB00023FB002010BD10B500F044FB002010BD29
:102BC0007FB50D4604464169B0F9080081B1A1699D
:102BD00071B1FFF7E3FFD4E905128DE80700D4E9EE
:102BE00000102B46226901F032FA039004B070BD48
:102BF000FFF7D4FF03A9CDE90001208A2B4682B25A
:102C0000D4E9001001F0F6F9012801D00020EDE729
:102C10000398EBE72DE9F041184C0F460546E668AE
:102C20002068001D00F020FA38B9206890F82C10B8
:102C300001208840216981432161681C07D137B197
:102C40002168BDE8F0410E48091D00F051BA206826
:102C50003544B5424560216805D2A06BBDE8F0411E
:102C6000091D00F02DBA606B091D00F029FAA06A59
:102C7000854200D2A562BDE8F08100002C00002052
:102C8000581500202DE9F041054600F03DFA2E4C84
:102C9000A068401CA06020682C4F10B1606940B350
:102CA0002DE02560A068012829D1002606EB8600CA
:102CB00007EB800000F0F6F9761C072EF6D32348C8
:102CC0008C3000F0EFF92148A03000F0EBF91F48FC
:102CD000B43000F0E7F91D48C83000F0E3F91B48B4
:102CE000DC3000F0DFF919488C3060631430A063E9
:102CF00005E02068E96AC06A884200D82560606AF9
:102D0000401C6062E96A012022698840104320610A
:102D100001EB810007EB8000291D00F0E9F900F0CC
:102D200013FA606900280CD02068E96AC06A8842FA
:102D300007D207494FF080500860BFF34F8FBFF3B1
:102D40006F8FBDE8F08100002C0000207C14002073
:102D500004ED00E010B5044690F8510058B1012888
:102D60000CD002280FD0502080F31188BFF34F8F72
:102D7000BFF36F8FFEE7206B00F0FAF92046BDE845
:102D8000104000F0F5B910BD10484FF470514207E3
:102D900006D0C01D0D4920F00700411AC1F5705141
:102DA0000B4A00230144C2E900030839183A21F014
:102DB000070111604B600B600B1AC0E900139360B0
:102DC0004FF0004053605061704700006C150020C8
:102DD00080000020144E154CA6F1C8074FF0805813
:102DE000DFF84C9012E000BF00F08EF9F068C56883
:102DF000281D00F039F9A068401EA0606068401EE0
:102E0000606000F0A1F92846FFF7A4FF6068002881
:102E1000EAD138680128F9D9C9F80080BFF34F8F8B
:102E2000BFF36F8FF2E70000441500202C00002054
:102E300004ED00E02DE9F0479A46DDE9098481467A
:102E40006FF00303206B03EB82021044089E20F016
:102E50000707780707D0502080F31188BFF34F8F02
:102E6000BFF36F8FFEE7002561B1002023180A5CD5
:102E700083F834200A5C12B1401C1028F6D384F881
:102E8000435001E084F83450072E00D30626E66252
:102E9000C4E91165201D00F010F904F1180000F0DC
:102EA0000CF92461C6F107006462A061E56484F84E
:102EB000505052464946384600F0C0F82060B8F1FC
:102EC000000F01D0C8F80040BDE8F08730B51149C7
:102ED00000E011460A688242FBD34B685C188442CA
:102EE00003D1406818444860084643681C1894425F
:102EF00009D1084C183C2468A24209D052681A44EF
:102F000042600A6812680260814200D0086030BDE9
:102F10000460F9E7800000200648416B096829B188
:102F2000416BC968C9684968816270474FF0FF31D9
:102F3000FAE700002C00002008484068401C4FF0D1
:102F4000500080F3118804D0BFF34F8FBFF36F8F11
:102F5000FEE7BFF34F8FBFF36F8FFEE788000020BF
:102F60002DE9F0410546002700F0A2F9324E306805
:102F700008B9FFF709FF706905424ED1C5B308359E
:102F800068070ED005F00700C0F108000544680787
:102F900007D0502080F31188BFF34F8FBFF36F8F9E
:102FA000FEE72DB37068854237D8234818300146B4
:102FB0000C6801E020460C466168A94202D22168F3
:102FC0000029F7D131688C4227D007682168016059
:102FD00060680837411B10290FD96019420708D0D3
:102FE000502080F31188BFF34F8FBFF36F8FFEE740
:102FF00013E041606560FFF769FF61687068401A1F
:103000007060B268904200D2B060706901430020E5
:10301000C4E90001F068401CF06001F0B7F87807DF
:1030200007D0502080F31188BFF34F8FBFF36F8F0D
:10303000FEE73846BDE8F0816800002010B5031FA8
:103040004FF080741C601B1F21F001011960191FD3
:10305000044B0B6014390A60091F6FF002024438F8
:103060000A6010BD392F0008D0E9013201699A6069
:10307000D0E901235A604A68824201D182684A60DD
:10308000002202610868401E08600868704700005E
:10309000034B036003F15400086080201060704708
:1030A0009810002000F108014FF0FF32C0E9011232
:1030B000C16001610021016070470021016170471A
:1030C00030B50B685A1C02D000F1080202E0026918
:1030D00004E02246546825689D42FAD953684B6043
:1030E00099608A60516008610168491C016030BDC7
:1030F00042684A6093688B60936859609160086188
:103100000168491C01607047502080F31188BFF3AB
:103110004F8FBFF36F8F0A494868401C48600128F1
:103120000CD10848006810F0FF0F07D0502080F342
:103130001188BFF34F8FBFF36F8FFEE7704700001A
:103140008800002004ED00E00849486828B1401ECE
:10315000486001D180F311887047502080F31188B6
:10316000BFF34F8FBFF36F8FFEE700008800002092
:1031700070B500282AD0164DA0F10804606869696E
:10318000084207D1502080F31188BFF34F8FBFF35F
:103190006F8FFEE722683AB1502080F31188BFF3A9
:1031A0004F8FBFF36F8FFEE78843606000F080F8B9
:1031B00060686968084468602046FFF787FE2869F0
:1031C000401C2861BDE8704000F0E0BF70BD000009
:1031D000680000204FF0E020002101618161054975
:1031E0004FF47A720968B1FBF2F1491E416107217F
:1031F000016170472800002010B5020014D00F486C
:10320000006B38B1502080F31188BFF34F8FBFF3AC
:103210006F8FFEE700F04CF800211046FFF7FAFC34
:1032200000F0B4FF002807D105494FF08050086036
:10323000BFF34F8FBFF36F8F10BD00002C00002035
:1032400004ED00E010B586B00024039405AA04A99B
:1032500003A80494FFF71CFFDDE903010094CDE906
:10326000011000230EA11048059A00F0F0FE0F494E
:103270000028C86211D0502080F31188BFF34F8F0F
:10328000BFF36F8F4FF0FF30886201204861CC6040
:1032900006B0BDE8104000F01DBE06B010BD000035
:1032A00049444C4500000000D52D00082C000020AA
:1032B0000248016B491C0163704700002C0000208C
:1032C0001448016B11B10121C16170470021C16136
:1032D0000169B1FA81F1C1F11F0101EB81020E49CF
:1032E00051F822306BB101EB820101F108034A6809
:1032F00052684A609A4201D152684A60D1680160BE
:103300007047502080F31188BFF34F8FBFF36F8F4A
:10331000FEE700002C0000207C14002070B50D4654
:103320000446042300F5A0620021FEF7CDFE94F8C8
:103330000015A278914213D0FF2911D094F80115FD
:1033400005290DD194F80225914309D194F803156C
:10335000C90605D50121297094F80015A17070BD2A
:1033600094F80315090602D594F8021508430021C4
:10337000297070BD2DE9F0471C4603F10C0527A309
:103380008A46804686B00BCB02AE86E80B0040F240
:10339000AC50854201D9FF263CE0100A8DF80800A8
:1033A0008DF8092020098DF80A0020018DF80B0006
:1033B0000C2302AA42F6F4714046FEF7CFFE064601
:1033C0000321FF20CDE900014FF4305301220421F5
:1033D0004046FFF734F940EA060708F5A0622B469D
:1033E000914642F604414046FEF76EFE40EA07066B
:1033F000A9B24846FEF788FE002120B208E000BFCF
:1034000008EB010292F804350AF80130491C09B2B0
:103410008142F5DB06B03046BDE8F08700000000D1
:103420000000000F000200082DE9F05F0AAF994686
:1034300097E8600192460C468346FFF79BFF0746DC
:1034400004EB080032462946FCF751FF4B46524632
:103450002146584600F004F83843BDE8F09F0000CC
:103460002DE9FC5F8A462FA10746D1E9008603F1CA
:103470000800010A61F3174660F31F661C4642F616
:10348000F470001B80B2009003F10C004FF00009B3
:1034900040F2AC514D468346884201D9FF253DE0BC
:1034A000100A60F3070562F30F25200960F3174542
:1034B000200160F31F6521465046FEF725FE4FF0C0
:1034C000FF3000FA84F005E01AF800103A18401EA8
:1034D00082F8041500B20028F6DA3919C7F8005549
:1034E000C1F80485C1F8086507F5A0625B46384657
:1034F0000099FEF733FE40EA09060321FF20CDE9DB
:1035000000014FF43053012204213846FFF797F8A9
:1035100040EA060521465046FEF7F6FD2846BDE87E
:10352000FC9F00000000000F050100002DE9F041A4
:103530000C4600F5A0620546164600214368FEF7DA
:10354000C3FD074695F80005A870A88881B23046EB
:10355000FEF7DAFD10264CE0A9194FF4A0604058A0
:1035600000F00F02931E0B2B04D2C0F30B1312FBBF
:1035700003F201E0C0F30B129046000C4DF6C4328A
:10358000831A904273D017DC45F2D053A0EB0302AC
:10359000984225D007DC00F64C30B0F5C04018D07A
:1035A0001C2824D119E0A2F52272B2F5004273D092
:1035B000B2F54B7F1BD155E0B3F5407F5BD0B3F53F
:1035C000607F5CD0B3F5906F5DD0B3F5986F0ED18E
:1035D0005EE091F80C05207009E04246201D02E0F3
:1035E000424604F5A27001F20451FCF780FE464405
:1035F000361D6868B042AFD85FF0000004EB800170
:10360000401C4A68D20A4A604028F7D35FF00000A5
:1036100004EB4001B1F9C423D31702EB937292106B
:10362000A1F8C42302D50022A1F8C423221892F8DD
:1036300044345B0882F84434B1F84423D209A1F839
:10364000442304EB8001401CD1F84422D20AC1F883
:1036500044224028DCD30020FF21221892F80421C4
:10366000F2B120E0424604F58270BCE7FFE7424633
:1036700004F51170B7E7424604F55170B3E74246CE
:1036800004F57170AFE7424604F24440ABE703E053
:10369000424604F28440A6E7424604F2C440A2E750
:1036A000021982F88414401C4028D6D300204FF61B
:1036B000FF7200BF04EB8001401CD1F8D0342028F9
:1036C000B3FBF2F3C1F8D034F4D395F8080505F252
:1036D000FC42010295F809050843696805F2FD45B9
:1036E0008A5C495D41EA0221884201D047F0020725
:1036F0003846BDE8F08170B50D460446082345F212
:10370000504200F5A061FFF735FE94F8001594F8DB
:10371000012511FB02F1297070BD00002DE9F04F69
:103720000446FFA087B000684FF00109CDE9040905
:10373000FC48E060A0F57370A060002084F8AC0A3B
:10374000024647F6FF7739462046FEF7F3FC05466A
:10375000042209212046FEF7EDFC40EA050640223E
:103760000F212046FEF7E6FC40EA060503220A2167
:103770002046FEF7DFFC40EA050603AA394620464C
:10378000FEF784FC40EA060501220C212046FEF7E4
:10379000D1FC0543002240F201112046FEF7CAFC8D
:1037A000054300224FF481712046FEF7C3FC054318
:1037B0004FF4857B012259462046FEF7BBFC0543AA
:1037C00044F20206012231462046FEF7B3FC0543CF
:1037D000002231462046FEF7ADFC05430322594640
:1037E0002046FEF7A7FC0543012240F203112046C4
:1037F000FEF7A0FC054300220C212046FEF79AFCB0
:10380000054343220F212046FEF794FC0543012186
:103810002046FEF788FC054340220F212046FEF794
:1038200089FC054301220A212046FEF783FC05435B
:1038300064212046FEF777FC0543002239462046E6
:10384000FEF778FC4FF0FF0ACDE900A905430623F7
:10385000002201212046FEF7F2FE28437DD10122FD
:103860000E212046FEF766FC05460222B846394680
:103870002046FEF75FFC05430D2203212046FEF79C
:1038800059FC0543012241462046FEF753FC40EA1D
:1038900005061025009521230022012120460195CF
:1038A000FEF7CDFE0643002241462046FEF742FCCD
:1038B000064303AA41462046FEF7E8FB06430122E1
:1038C0000C212046FEF736FC0643002241462046E6
:1038D000FEF730FC0643002240F201112046FEF7BD
:1038E00029FC064300224FF481712046FEF722FC9A
:1038F0000643012259462046FEF71CFC064344F2CB
:103900000207012239462046FEF714FC0643002236
:1039100039462046FEF70EFC064303225946204650
:10392000FEF708FC0643012240F203112046FEF791
:1039300001FC0643002244F20F012046FEF7FAFB89
:10394000064340F21A2B432259462046FEF7F2FB6B
:10395000064303225946204600E004E1FEF7EAFB55
:1039600040EA0607012259462046FEF7E3FB40EAFB
:103970000706002259462046FEF7DCFB06430022DC
:1039800040F219212046FEF7D5FB0643002240F203
:103990001B212046FEF7CEFB06430022414620466F
:1039A000FEF7C8FB064303AA41462046FEF76EFB1E
:1039B000064300220C212046FEF7BCFB06430122F1
:1039C00041462046FEF7B6FB06430722202120464B
:1039D000FEF7B0FB0643062220212046FEF7AAFB95
:1039E0000643092241462046FEF7A4FB0643EF02A8
:1039F0003B464D4A00212046FEF7B0FB06430A2213
:103A000041462046FEF796FB06433B46474A0021C7
:103A10002046FEF7A3FB06430B2241462046FEF755
:103A200089FB06434FF4A043414A00212046FEF79C
:103A300095FB0643012241462046FEF77BFB40EA08
:103A40000607022241462046FEF774FB40EA0706BD
:103A50000D2203212046FEF76DFB40EA06070122F6
:103A600041462046FEF766FB40EA07060095212303
:103A70000022012120460195FEF7E1FD304372D17D
:103A80000022454641462046FEF754FB064603AA5F
:103A900029462046FEF7FAFA064301220C21204669
:103AA000FEF748FB0643002229462046FEF742FB6C
:103AB000064300224FF48A712046FEF73BFB064383
:103AC000002240F215112046FEF734FB0643422245
:103AD0004FF48B712046FEF72DFB0643002240F287
:103AE00017112046FEF726FB064300220B21204635
:103AF000FEF720FB064303AA29462046FEF7C6FA36
:103B000040EA060500220C212046FEF713FB054380
:103B100001220B212046FEF70DFB40EA050609E0D5
:103B2000010001001C9601085042000850C2000824
:103B30005042010800252F464FF4FA7B6A460621C1
:103B40002046FEF7A3FA05439DF8000000060BD5BA
:103B500001AA07212046FEF799FA9DF80410284390
:103B600040EA01050CE08CE001212046FEF7DBFA7B
:103B70007F1C9DF80000BFB2C00701D15F45DDD3B7
:103B800055EA06007DD1022241462046FEF7D2FAD0
:103B9000054628233E4A42F6D8712046FEF7DEFA53
:103BA00040EA05060220CDE900A04FF43057554603
:103BB0003B46002204212046FEF741FD064304F562
:103BC000A0624FF4F6739246391D2046FEF77CFA48
:103BD00006434FF4F472514604F11000FCF787FBE2
:103BE00010212046FEF760FD06434FF4427229493A
:103BF00004F5FC70FCF77BFB10212046FEF7FEFD70
:103C000006434FF4737342F634412046A268FEF730
:103C1000A5FA06430320CDE900503B4601220421CA
:103C20002046FEF70CFD40EA060504234DF68032DF
:103C300004A92046FFF714FC054304234DF6641243
:103C400005A92046FFF70CFC40EA05084D468DF813
:103C50000C9003AF26200097CDE901504EF20819D1
:103C600028234A4651462046FFF7DEFB40EA080675
:103C700025200097CDE9015028234A465146204689
:103C800000E002E0FFF7D0FB304307B0BDE8F08F63
:103C9000249901081C9601082DE9FC410D4647F6C0
:103CA000FF76074600223146FEF744FA04466A468C
:103CB00000213846FEF7EAF9044301AA01213846FB
:103CC000FEF7E4F90443022231463846FEF732FAA1
:103CD0009DF800102043F02903D19DF8041002291B
:103CE00003D000212970BDE8FC810121FAE703B56A
:103CF00083B0012104AACDE900210291042345F2F9
:103D0000584200F5A061FFF78FFB05B000BD2DE91B
:103D1000F8430F4600264AF6305800F5A0610446E5
:103D20000823424689460096FFF724FB05460120FA
:103D30000321012F13D0032F17D07F2508234246DC
:103D400049462046FFF78CFB054304234DF66412D9
:103D500069462046FFF784FB2843BDE8F88384F8D2
:103D6000010584F803150096E8E784F8011502219F
:103D700084F803150090E1E7F0B597B004460025FC
:103D800052A0079508950068159002A92046FFF7F4
:103D9000B2FC064665604E48FF27A7700FC803AD0A
:103DA00085E80F004A493022103109A8FCF79FFA34
:103DB0000398002500F6F87009AA039052F8250030
:103DC00000B36B0903A905F01F0C51F82310012360
:103DD00003FA0CF3194215D000F00F035B1E02EB3F
:103DE00085010C2B6CD29DF8083063F30F1008602E
:103DF0000888636800F00F01C0F30B1011FB00305E
:103E0000001D60606D1C0C2DD8D360683023183005
:103E100060604DF6801209A92046FFF721FB06439A
:103E20006D1C6068CDE9070508234DF6681207A9E7
:103E30002046FFF715FB064310234DF6701203A929
:103E40002046FFF70DFB40EA060547F6FF76002205
:103E500031462046FEF76EF905430522092120462A
:103E6000FEF768F90543022231462046FEF762F963
:103E70000543042315AA42F6FC712046FEF76EF9AD
:103E800005430320CDE900704FF430530122042193
:103E90002046FEF7D4FB40EA050604F5A0610C239A
:103EA00045F240420D462046FFF764FA29896268D0
:103EB000304389B28A4201D040F0FF0017B0F0BD14
:103EC0006168C0F30B1008449AE70000000300008B
:103ED0004C9901081CB537480168374A914207D10F
:103EE000502080F31188BFF34F8FBFF36F8FFEE731
:103EF00000683149491E884207D1502080F311885B
:103F0000BFF34F8FBFF36F8FFEE72C490878019006
:103F1000FF20087008788DF800009DF800009DF8DB
:103F2000002000F0F000904207D0502080F311886C
:103F3000BFF34F8FBFF36F8FFEE79DF80000204C5B
:103F400000F0500020700720A06005E09DF80020E0
:103F500052008DF80020401E9DF800201206F5D476
:103F6000A060032807D0502080F31188BFF34F8F43
:103F7000BFF36F8FFEE74FF44070A06001980870A8
:103F80000C482030016841F470010160016841F083
:103F900070410160FFF71EF900206060FCF728F90E
:103FA0000848016841F040410160FCF70DF900202C
:103FB0001CBD000000ED00E071C20F4100E400E014
:103FC0008800002034EF00E010B5502080F3118805
:103FD000BFF34F8FBFF36F8F00F072F818B1044931
:103FE0004FF080500860002080F3118810BD000061
:103FF00004ED00E02DE9FF5F8346DDE90E87994679
:1040000016468A469000FEF7ABFF05001CD05420F0
:10401000FEF7A6FF040014D00020256384F85100A9
:10402000CDE90240CDE900874B463246514658461D
:10403000FEF700FF2046FEF725FE012004B0BDE894
:10404000F09F2846FFF794F84FF0FF30F6E7F0B501
:1040500085B0DDE90B640A9DA6B1DCB15427009759
:104060002663022684F85160002604AFCDE902469B
:10407000CDE90057FEF7DEFE2046FEF703FE04986A
:1040800005B0F0BD502080F31188BFF34F8FBFF310
:104090006F8FFEE7502080F31188BFF34F8FBFF37F
:1040A0006F8FFEE70548416919B1006B18B1002018
:1040B0007047012070470220704700002C0000204C
:1040C0002DE9F0412F4C0026206B28B1A069401C3F
:1040D000A0613046BDE8F081E5686D1CE56013D154
:1040E000606B006838B1502080F31188BFF34F8FA8
:1040F000BFF36F8FFEE7606BA16B6163A063206A03
:10410000401C2062FEF708FFA06ADFF87C80854231
:1041100009D3606B0068A0B1606BC068C76878683D
:10412000854211D2A0622068C06A00EB800158F875
:104130002100012800D90126E0690028C9D0012604
:10414000C7E74FF0FF30EDE7381DFEF78DFFB86A87
:1041500018B107F11800FEF787FFF96A01202269FC
:1041600088401043206101EB810108EB8100391D7B
:10417000FEF7BEFFF86A2168C96A8842C9D30126E2
:10418000C7E700002C0000207C1400202DE9F04738
:104190002C4D00242746286B38B1FEF7B5FF286B5D
:1041A000401E2863286B40B146E0502080F3118800
:1041B000BFF34F8FBFF36F8FFEE7A968224E012038
:1041C000D1B3A6F1B40980463068E8B1F068C4689C
:1041D00004F11800FEF748FF201DFEF745FFE06AD6
:1041E0002A6908FA00F11143296100EB800109EB0B
:1041F0008100211DFEF77CFFE06A2968C96A8842B8
:10420000E2D3C5F81C80DFE70CB1FEF785FEAC6990
:1042100044B14646FFF754FF00B1EE61641EF9D188
:104220000020A861E86938B108490127380708600B
:10423000BFF34F8FBFF36F8FFEF786FF3846BDE8A1
:10424000F08700002C0000203015002004ED00E075
:10425000E0000308E0000AC8E0000508E064084840
:10426000E0000A88E0000A88E0000A88E0000A8886
:10427000E0642E28E06431E8E0643548E0643B887F
:10428000E0680468E0681768E0681B48E0681EC8DA
:10429000E0682528E0682848E00009E8E00009C84F
:1042A000E00009A8E0000988E0000968E00009488A
:1042B000F8020006C1C381011E06A10B1A06810087
:1042C0009923E10097B397E3062C97730634E2C075
:1042D000062CFC80C183E340E2C0061CFC98063437
:1042E000FC9C0634E340061C6938C183C143E800E6
:1042F000C1C38105E100000CFA045E65EC100CF00E
:10430000F41C5E60BC6E8861FF8407FC9A14D804BC
:10431000E4300460FC124C06E0D04C4AC1C3821564
:10432000C1C3C1C3F804170C81938183E2C00C2C74
:104330001C8CD167E36BE404E56B8E058064038815
:1043400004D8E76BE96B8064EB6B8AC58064060870
:104350000A58ED6BF16B8064806407280878F36B72
:10436000F56B8064F76B8AC5F96B8C05FB6B8C452C
:104370000C0A8A458A65E4B4E4B80C0A0A788445D4
:104380004006E064404AFC1280D5E0D0C1C3C1C3FE
:104390001F0CC1C30FFCF004BCF4F784C153FD64CF
:1043A000E080000CE080000CE080000CE080000C5D
:1043B000E080000CE080000CE080000CE080000C4D
:1043C000E080000CE080000CE080000CE080000C3D
:1043D000C1C3C143C1C3C153FAFC040C600006DA77
:1043E0000A20A10B183064000E24E400020A378072
:1043F0000C068000083420000A70B7805842A404DC
:1044000081613298212BAA45060A8CBB0C10000052
:104410000400E400181A6400A825E0000804A11DA7
:104420000E1457801006D780044040000854C4047E
:104430004C72768010C4D2A0144076800E64A480A2
:104440001224F680A16B76803C0154808C8B400056
:1044500004800890DC004870849B28A3EC040EA024
:104460009EE5A07D964B217B0E8A86450E9AE5003F
:104470000006448016A0800008542C84C000289CAC
:1044800020010E4A0054400000C4A8ACC000289D82
:104490000F9C14544002885B80CB99A861840084EF
:1044A000E1840894128401CB324FE0FCE4041C70D8
:1044B0004B0A01A158DA841094BB64006D84401A41
:1044C0001C70C61F00C424080E54A084085421FC8C
:1044D0004002A084A1EB399C3C005800BC004A403B
:1044E0001D5A08C50EE0E0040DCBEC04E1FC00A46D
:1044F0004B0A42B758FA840808C4641810A4E0FCB8
:10450000400A608420BFED8C005490AB1484618419
:10451000280F9C809194482213B04A624C50C3C724
:10452000805B1C0027F04ED89C004440960B211D58
:10453000578004A4D78002B440000606C4040420B7
:10454000528C42124010946B4C205C00801BDC00AB
:104550000C0C8C0BDD93F2FC8C1B7FC5806B7FA554
:10456000967B73E5FA3C040C81C1210B0000020A22
:10457000A085986B76800A140824A12B060A768001
:104580000C048000988B7680061A1EC51834E00053
:10459000A11B7680A4800E403C014EC00860C00084
:1045A00048500480A873DC00EC040A709AC5A05D32
:1045B00090CB215B0A8A86450A9AE500080644806A
:1045C000107080000A4A2C84C0002000289508340E
:1045D0000C24400008248F94182428A0C00028949C
:1045E00019984842883B982B61840814E0FC0C140D
:1045F000618418042CCF893BE41046DA0430450A64
:10460000E40412506D84401A125081C10C24240815
:104610000834A1FC0A2420844842A084A19B399834
:104620003C004640BC004450135A186B88C5E00457
:10463000EC040E9046FA033B450AE4040A24040005
:104640001034E184C26760FC60841CC4ED8C400AB5
:104650006184083410C4B05F9CCB61FC5002306FA1
:1046600044129188883B138C1C00422040808A2B86
:1046700018E41C004FD89C80180BA7EC0C0C8C1B6A
:10468000DD93F23C826B00CB75F5FF95C1C3905B67
:10469000FAFC040C808B210B0000020A046B829B45
:1046A00080E5867B060AA12B400A800080E5E59C18
:1046B000841B81210C0C840BDD93F2FC6800418883
:1046C00000BB841B02AB900B41188E1B007BE800E3
:1046D00040D8920B8C1B680044B2813142A2F08C0E
:1046E0008623F29C42127D85C1C3F280E6864A0E83
:1046F000E706580E6606460EE1C008546786440E6B
:10470000E0C000C402C460578A03E1C0F2904212C4
:104710005D938603F2884212E50004CAC17C02144C
:10472000DC004010848004CACC800420C908001436
:10473000C17C02148000045AAD88061420010606CC
:104740000004C0000214898840028908DD93998C16
:10475000E50004CAC0000206C0000006848004CA46
:10476000CC800420C9880014C00002068000045ACE
:10477000AD880614200106060004C00002148988D2
:1047800040028988DD93998C8141610B06148A254A
:10479000E11B768076800404088581410630A433CD
:1047A00004046C04A03DE184A13B86E5C88C02149E
:1047B00064041830E408431A24081830A084021452
:1047C0000AC021CB195AEC048245E004C247401DBF
:1047D0001C8008449184400227FC4A985D93C317CB
:1047E0007FE5880B7D55804BC1C3883BFA00040CE4
:1047F0008111006BE8045048E1A040860015800458
:10480000A11BE03CDC384208680457C8C1C38C0BCC
:10481000FA04047C74A9464E490EC010C01074A955
:104820008825893DCD14CD04050ACD244A00E080B9
:104830008425F00CE4000A3A60010098042080000E
:10484000C116EC04F80C004A0420FE65E92DEC10BA
:10485000FE85C11EE00404CA8000454845C8C11653
:10486000FBF587FCE198414661914306801EC0003C
:1048700081119B0181318121E8044A888C45A10B7B
:1048800074A906CE484EC010C01074A98A45893D4F
:10489000CD14CD04050ACD244A00E0808625F00C15
:1048A000F00C4C10E4184A5AE4000A3AA00001281F
:1048B000600100A8C5508000EC040420004AC156E5
:1048C000FE45F80C0420C554E92DEC10FE65C15ED0
:1048D000E00404CA80004588C156C55087FC45885D
:1048E0004786FB6508F0E1908C4EE430E1A40C466D
:1048F000E1A40E4682458F6D023AD9140068E400A7
:1049000080006001FC3842088161FF650046E16B70
:104910004C08E1A48B04DC38FE248914E86C65683B
:10492000E1A40C46E1A40E4682458F6D023AD914EB
:104930000068E40080006001FC3842087578FF657B
:104940000C7CEFFCDD93F2048055A11B0A0083115F
:104950004006E550404AFC12D7F4E0D0C1C382B50E
:10496000C1C3C1C3F4040B3FF4040B2FF4040B1FA9
:10497000F4040B0F0A508135405AEC404406E0BC69
:10498000446ABC22404AA090C0002089ED88401AA9
:10499000200101980AFFC000C1C3F404C1C3C1C310
:1049A000F4040BF5F4040BE5F4040BD5F4040BC587
:1049B000F4040BB5F4040BA5F4040B95F4040B8577
:1049C0000AFF81550A50F404D7E4EC80D7B4D7D459
:1049D000D794D7A4D774D784820B9464FA005C0868
:1049E000F83C044CE440048A212B80A58215803BCE
:1049F000461281F5064AF98082B5F80C0420803B06
:104A0000044AEC04C548E4004588CD460C4C87FCBC
:104A1000DD93F03C6C400A204927E1C104208ACF95
:104A200006C06C04044AE440481264000033F08C71
:104A30000275806B0285F0100295F80C02A5F8084B
:104A40004C75F8044C85F0104C95F80C4CA5F80802
:104A50004408F804445287F8E92DF1B00A208695FD
:104A6000C5276C1061880E54EC040C206404187087
:104A7000E4000C4A047444C74242E088867B70B06C
:104A8000DD8ED18487FC4D8871884452A12B9833E8
:104A9000F7E5ECF5881B212BF7A5EC75E100000C80
:104AA000F804040C780C000A8225803B94A5A12B05
:104AB00004204D16064AEC04FE25F80C9095E92DCD
:104AC0007A800814E440048AE0A00A440854A85FED
:104AD00006F5E0C00C24AA4F0A20619061C1EC40A9
:104AE000EC040C600C4A0ACF4E32E400862B70B006
:104AF000E4400670F0104445F80C4445F80844457D
:104B0000F804444587FC4C08F1B044528695E92DE1
:104B1000F9C107514A52A4530453FAB0EC100420CF
:104B20000E2408514557E188E40418706C040C50B9
:104B3000E0880A7464000C4ADD4E867B87FC4DC811
:104B4000AA2344C7A12B983304208205044AEC040D
:104B5000CD16E40087FC45C8F0040C0CC1C3DD93FE
:104B6000FE7C040C044A007B4072E0101EF0798841
:104B7000000CED20001A6200110EF80C1B0E828B47
:104B8000200100265E05C00040002035233EEF8D49
:104B90005E17A40B9D2EE0FC2388A10E0024C0000C
:104BA000C41B6188C03B7D417A104212FA10463224
:104BB0008413003382113E1E82317C3E0020191E78
:104BC000973EEC040084FE0EAF8B6184540A158E70
:104BD0002EA5E68A00808EA3108A6C04400AE4A405
:104BE0005672E68A40707080A2B5DC0000840FBE69
:104BF00023B4E18CE68A4C0A60840064F098507219
:104C00008E030D0E8E0B0B0E5608901B138EFC3868
:104C10000B84809B901B900BFC385608829DFF11E3
:104C2000A00D82850E0B84D5A324901BFC3844086C
:104C30008E0B210D81C582858275A10D901B0E0BF7
:104C40004408A324210DFC3880458E0B930E900B55
:104C500050A22C0B2364F198F09856A2900B0B0EE7
:104C60004C08941B009BFC3809BE940B4C08961B07
:104C7000FF11FC3882A5829D84D5A00D900B09649C
:104C80008C1BA324FC38440801D5A10D9C00506066
:104C90008255A10D900B09A4941BA324FC38440851
:104CA0008055A10D8FB490AB8D148B949693A36413
:104CB000718440B28D0E921BFC384C08920B008B15
:104CC0004C08961BFF11FC3882C5828DA00D1584FF
:104CD0000D648615A324961B44088C0BA10DFC388B
:104CE0004CB001E515849C008275A10D961B0D64E6
:104CF0008C0BA324FC3844088095A10D8CBB013596
:104D0000930492BB941B23644C08930E009BFC38C5
:104D1000961B940BFC384C08829DFF11A00D8285D8
:104D200013A484D5A324961B4408940BA10DFC382E
:104D300081D582A58275A10D961B13648C0BA324CB
:104D4000FC3844085660A10D96AB9C00002A9B04D9
:104D50000118E00080004001E0FC1E0717148435B4
:104D6000024A8E0B8024E400C13EA8344308E92E99
:104D7000830587FCA8149C04A80E9C1E191481B5F9
:104D8000024A8E0B8028E400C136A8384308E92681
:104D90001D1487FCEC040080500A81614072668615
:104DA0001B0EF0840E8380AB90BB809B8CD5D6AD60
:104DB0008E1B140B4408A324A00DFC38A10B8AF50C
:104DC0009D049205A10B8DB5C0401E05012888D514
:104DD00080004001E0FC1E0717248455961B900BB1
:104DE000E400044A80448434C13EC54E87FC450833
:104DF000AC048315AC1EA01481C5A00E960B19241B
:104E0000044A901B8038E400C14684484508C536F2
:104E1000210487FC80838361D6AD80B3160B94F5A3
:104E2000A3248E1BFC384408F2C5A10D4001039851
:104E30001E0780008E35E0FC960B1724044A941B55
:104E40008434E400C54E80444508C13E878587FC14
:104E5000400101281E0780008455E0FC940B1724B4
:104E6000044A921B8434E400C54E80444508C13E88
:104E7000831587FCA814A404A80EA41E192481C5B8
:104E8000941B920BE400044A84488038C536C1461E
:104E900087FC450883611D0471958093A80480A355
:104EA000A81EAC1481C5AC0E940B1924044A961BA1
:104EB0008038E400C14684484508C5361D0487FC97
:104EC000210483616F3580A31D1480B39504A16B09
:104ED000E686400A00000E88F0805872719C42926B
:104EE000F1A440A2922B011D44A00E3B46909C00D1
:104EF00048229C00A14BF18C1E078A2542A260FC2F
:104F00008455F190FD3145474422C82B8E3B7A0CE5
:104F100082218823E400044A84548C44C54ECD5E2B
:104F200087FC450808308335FD516C0482212443F9
:104F3000FA14484226238823044A8E3B8C48E40016
:104F4000CD5684584508C5461D2487FCF1A042C2B1
:104F5000F1AC52824492A413A12BFB841E078C4512
:104F600084B5E0FC61880224423BFD41F18844C2E3
:104F7000FA10463202308233024AE404A834E400D4
:104F8000E94E88444308C93E83B587FC06B07E14C9
:104F90003033EC04901382214212B813FD317A8C25
:104FA000FA0C4612F1844232E400024A46C2285802
:104FB0000E48F188EC0404208E56E94687FC42082E
:104FC000986B1D148245C20DEFF87E088E0B001BF6
:104FD000A3349D24EFFC5C68C29D9D147D58A805F8
:104FE000920B6FF8F1A44E62808B1D24F9884072F9
:104FF000000A11045E07F80C1B0EE0FCC00000263E
:1050000040345E051E08EF8D408A9FFC840DE68AC1
:105010000E03A0C5F08850720024190E441BE188CD
:10502000403BFD21FA08421244321D348023FA0825
:10503000E40416200C108613CE8DE404909B8AC5E0
:1050400092AB2194941B2324920B9493FC38440834
:105050008875A30DA10B9B041E0782E58435E0FC37
:105060006400164A961B920B8034A824C12EE93E98
:1050700087FC4308A8048305A81EA41481B5A40EC8
:1050800064000C4A8C1B920B8038A828C126E93694
:1050900087FC4308F4B5CE9D19049D04C18D80831F
:1050A00087D5F2B5820D1BB48E2599CEFC84BE64E3
:1050B000828182618AC5CEBD2194969B232492ABC6
:1050C0009493941B4408920BA30DFC380118887527
:1050D00080004001E0FC1E07104A8435920B6400FA
:1050E000A824901BE93E80344308C12E830587FC29
:1050F000A414A804A40EA81E0C4A81B5920B640047
:10510000A8288C1BE93680384308C126CE9D87FC31
:105110009D04F4B580B31904F2B5C1BDE5201EF0BD
:10512000F67C0C0CC1C3DD9304FC805B4006E2C03E
:10513000D56EFC12D58ED57E405AD59E4206E0BC77
:10514000D5AEBC22D5DED5BE426AD5EE404AA0908F
:10515000C0002089ED88401A20010178C1C3C00039
:10516000C1C3C1C3F0044B85F0044B95F0044BA5BB
:10517000F0044BB5F0044BC5F0044BD5F0044BE5FF
:10518000F0044BF5C21F81A5D51ED51ED51ED51E18
:10519000D51ED51ED51ED51EE0D0404A82B5D52ECF
:1051A000C1C3C1C34B0FC1C34B1FF0044B2FF0044D
:1051B0004B3FF0048165F004D51EC21FD51ED51EDD
:1051C00094FED51EDD938101E0041986A3CDC1C3F1
:1051D000184A82A54346E0000215E1984205800086
:1051E00041FE8000BFFF1FFD4346DD938414E1981C
:1051F00041FE84CEFFFF7FFDC1C3DD93FE7C040C26
:105200006C401EF07C0E826BE1A04086020580148B
:10521000A10BE14802109AE5C0016521BE14BE1E33
:10522000808BFE1EA30DA204401B92551400FD218D
:105230004E1264044407FA0810039473E4000E6AE3
:10524000E6101600A16B140B140000E51615EC0413
:105250008D1BE08022148AF5EC080000F8801625EA
:10526000500583AB020600045615C000A12B5880E0
:10527000101588258331618800342294801FE880CE
:105280008265A11BE18C10152C14801F8205A11BC7
:105290004408820B8175FC38FC384408FC048145C5
:1052A000FC384408819BA204FE048835910B8004DD
:1052B0004E6886B53FFF47E5EC1016B0A10B8101A3
:1052C000A2048625A10B2004A10B82B5FE7484657F
:1052D000900B1C0E680140089C84C000E875A18BEF
:1052E0007E8E8195E6D5A10BBE048155A10B80046D
:1052F000A0F1E4F5F67C0C0CC1C3DD93E100000CD9
:10530000FA00004C8301001BEFFC76088105C143C5
:10531000FA8002140006E11B00069422DD93D46299
:10532000F800040C6C501EF0E47C034A826B3C5E77
:10533000FC1EBE5E42668E050C4AF0020634647C9A
:105340005E15FA804A0E00045E259FFC061A0008CE
:105350001E25E400442280045E2598141E2580004A
:105360001E5580004A5080084422907C5E25999406
:105370001E2580044220800418149C0040003CB587
:10538000BC341814024400D5E11BFA80DC3C18C47C
:10539000E2320066420E28F1C01060010C0C8C2B2A
:1053A0008775F000017E28F10C0CFFF8DD93F0000A
:1053B0006C401EF0E47C014ABE2EBC2E8685FC2E7D
:1053C000E47C000A440684453E2EF002FC1EC12106
:1053D000841FBE14BC14BC1EBE29FC24BE1EA41F08
:1053E0000006BE148155E206F87E4006F0FE000677
:1053F0005D9381017FE5A0F1FFF801AEE2C0041CDE
:10540000041FC111F07C4400021CA41FDD93E34083
:10541000E47C040A408804240000060E0830801052
:10542000481204105802D08802067190FFFC6000F8
:1054300000C483C7020FF080700142C0610BDFFC23
:1054400073FD40C04807C00300A5D0175D93A20FAD
:10545000FFF8018E60010286A20FF8004006900E50
:10546000A10DFC12400682C5A10DFC1A4006821552
:105470000206FC0AC02060018075830DF3720046AD
:1054800081015D93FA7C040CEC301EF0864B088B96
:1054900081713E2E405A006B7C7EE506425A813176
:1054A000882B6586EFF84F6867D10000448640017D
:1054B0004212E03C8131729CEFF84568000017A46D
:1054C000C0046401729C42121974D707E0D4161408
:1054D000FF0120BF001401BB57FEE1ACA10B1FFC74
:1054E00060381409DFFC57FE81111B940AF01C245C
:1054F0001504E420BE44A10B8008001B06148004A0
:10550000901B7B00E80043C8FC04BC0EE0180E4969
:105510006834AA245082A01B8E0B7B9068384A689E
:105520003E0E8C4B850581A10E29D90A42BAE01C9A
:1055300048BAE502062065828301E41C0203A70F36
:105540004242811190217284EFF850487FFD45FE60
:1055500082A1403F41FEC50D003F1FFD41FEA11B42
:10556000C03F1FFD91ADE50EBE04F8151E05A10B51
:1055700098F10000F27C0C0CC1C3DD935896211BFE
:105580000214E008180640AC442AC000A14B4106B2
:105590000000020680085896FF1182650244023D11
:1055A0006037E10491800214421A86132023E092AE
:1055B0008223980BDD93942EFA04044C8111026B24
:1055C0006000450666D88C0B81716FF8660000603C
:1055D000E4C00260912101A50420067E4073EC0422
:1055E0004275F820C17CF008FCF5A12B7FF4410E38
:1055F000E038030660280506FFD4470E486281F5AF
:1056000000007180927EEC204862107E107EF0884F
:10561000F084486282111076870B882141F6FC35B0
:105620008111600C6F404C01674400606398C003B7
:105630008F216FF86561006002604008C0036761F8
:1056400005060195067EE008EC040420F00842758A
:10565000A12BC17C0C4CFE35DD93F2046FD10019F7
:10566000A11BC00500098245C006602DF3F0400073
:10567000000CA90BDD93E20081015D93F0804412E0
:10568000EC7004298405A12BE03C0229E682402A23
:1056900002098013C0056B71EC140000E40800CA15
:1056A000E200000C5D93DD93C1C38101F804040C9A
:1056B000603C0239677002100A04C0030420608C49
:1056C0000455E64058227C14463AF0948171668273
:1056D0000834B264C2376088FC10024548628853BF
:1056E0008613729C0804324E305EE08802138443B5
:1056F00040016C01083580238233E200E200483526
:10570000EC000409440182010C0CEC00DD93F00470
:10571000FE04040C4822086B214BF98C08658A7B37
:10572000E008489661840824E0FC0A340A342A4FD1
:105730008803E1846FF47188F2844252641C434A06
:10574000421A8141416AE01C420AE418421AE5808B
:10575000420AE1880904ED80DC004C00DC004E10B8
:10576000806E827E0C0C880BDD93F604F800044CEE
:1057700067FD00258151400186448434E01802C54C
:105780006FC90021843340056050026BF294484297
:105790006FCD00010255C00584C3601C8261064EB6
:1057A00042C5843E80536018E01C4255E05042637D
:1057B000F0000C4CC1C3DD93603C0239C84481C188
:1057C000463ACA54C437E682063582338643E7DC5C
:1057D00072B04652CA3E80130201C84E0435EA70C8
:1057E0008033E020E0204435E054043BEB700201BC
:1057F000E0240415443382318013E054E02444153E
:10580000C1C3DD93E03C0239E058044BE682403AE4
:10581000E01404358013C407E7DC0205E01004152A
:105820008101001372804032440582414415E01426
:105830004443E010DD93E058605800290A39845B46
:105840000A49EF400239EF44400160514A21C72D17
:10585000C82D4F406F484A21E4A008004F444A2118
:105860000035C23786136020603002C367600A507B
:105870000213C003980BE0C0E0002468FA3C040C5B
:10588000846B027B60500E2B0EAB81810E9BE0542B
:10589000188EE0589A8EA12B4C23D88E4CA3E0187A
:1058A0004C93E01C84C5E02006241C049E14E18473
:1058B000813106036FF46588F2A0421267FD008A09
:1058C00041FEC7FF00011FFD41FEA11BC0011FFDDE
:1058D000140A980E04A4680084C5FB8006245C04A6
:1058E000DE14E184813106036FF463E8F2A0421212
:1058F00067FD008A41FEC7FF00011FFD41FEA11B9D
:10590000C0011FFD120A9A0E049468008605FB80F0
:1059100060100E05E1840624E0140E1581310603A3
:105920006FF46228F2A0421267FD008A41FEC7FFB1
:1059300000011FFD41FEA11BC0011FFD0C0CD80E74
:10594000DD93F23CF804040C843B010146018A0615
:105950008E06F008020B8C06A10BE05002C58845AC
:10596000060460187F51E184866BA64B4C408ACDBB
:1059700018639C00FFF8180EE0824E6AE01C026576
:105980004A720A6D4640FA300A521C000856E9FC79
:10599000403A8C334002E0820002FA308A06E9FC89
:1059A000E054020B8845A10B602002C5E184060487
:1059B000A64B7F518ACD866B9C004C40602402C56B
:1059C0004C6A9863020E60828ACDFFF81C00464044
:1059D000FA044C620A621833403AE9FCC856E08285
:1059E000FA044002E9FC00020C0CCA06DD93F00444
:1059F000F81C040C8904847A0489861AD658E010AD
:105A0000807C8898C8C88A780429CA68021CE01477
:105A1000E1840284601040510A249813C217618403
:105A200002100C534011EC04C257601C6C0402506D
:105A30004011C287C2276020602840216640044090
:105A40000619C00381316038E0144091E0184071BC
:105A5000E024408149488195EC040A30EC040210AE
:105A60004640C95DA11B9C004031FCF58101602CC2
:105A7000F01C0C0CC1C3DD93F0804622EC7006399B
:105A800086A5A13BE03C0439E682403AF0804622FC
:105A90006B7106390630C005E23DEC14C20784156F
:105AA00004038023C00263B986128422411A850D43
:105AB000400AE004000CE184DD93E20081015D9383
:105AC000FA7C040CEC701EF081611D04888B7C5EF6
:105AD000901B7E1E00063E0E8B6EE004E03804B97B
