:020000040800F2
:10000000705900206902000827230008AD1B000872
:10001000252300085B0800083F26000800000000B8
:10002000000000000000000000000000A90100081E
:100030005D0800080000000005020008B123000868
:10004000830200088302000883020008830200087C
:10005000830200088302000883020008830200086C
:100060008302000883020008750800088302000864
:10007000830200088302000883020008830200084C
:1000800083020008830200088302000800000000C9
:1000900000000000000000000000000083020008D3
:1000A000830200088302000883020008830200081C
:1000B000830200088302000883020008830200080C
:1000C00083020008830200088302000883020008FC
:1000D0008302000883020008830200080000000079
:1000E0005F08000883020008830200080000000087
:1000F0000000000000000000000000008302000873
:100100000000000083020008830200088302000848
:1001100000000000000000000000000000000000DF
:10012000830200088302000883020008830200089B
:100130008302000800000000000000000000000032
:100140000000000000000000000000008302000822
:10015000830200088302000883020008830200086B
:100160008302000883020008000000000000000075
:10017000000000000000000000000000000000007F
:1001800000000000830200080000000000000000E2
:1001900083020008DFF80CD000F0DEFA00480047C8
:1001A000DD340008705900202C4B19680868B0E84D
:1001B000F04F80F30988BFF36F8F4FF0000080F39A
:1001C000118870470000000008480068006880F34C
:1001D00008884FF0000080F3148862B661B6BFF360
:1001E0004F8FBFF36F8F00DF00BF00BF08ED00E04F
:1001F000DFF80C00016841F470010160704700BF36
:1002000088ED00E0EFF30980BFF36F8F134B1A689E
:100210001EF0100F08BF20ED108A20E9F04F10608B
:1002200009B44FF0500080F31188BFF34F8FBFF334
:100230006F8F04F0A5FF4FF0000080F3118809BC18
:1002400019680868B0E8F04F1EF0100F08BFB0EC56
:10025000108A80F30988BFF36F8F70478C000020ED
:10026000EFF30580704700000648804706480047C6
:10027000FEE7FEE7FEE7FEE7FEE7FEE7FEE7FEE756
:10028000FEE7FEE761240008950100082DE9F05F14
:100290000546002092469B468846064681464024F5
:1002A0001BE0284641464746224600F08DF853465B
:1002B0005A46C01A914110D311461846224600F002
:1002C00074F82D1A67EB01084F46224601200021E1
:1002D00000F06BF817EB00094E41201EA4F1010459
:1002E000DFDC484631462A464346BDE8F09F40EAF7
:1002F00001039B0703D009E008C9121F08C0042AA4
:10030000FAD203E011F8013B00F8013B521EF9D28A
:100310007047D2B201E000F8012B491EFBD27047B2
:100320000022F6E710B513460A4604461946FFF7C1
:10033000F0FF204610BD421C10F8011B0029FBD124
:10034000801A704710B5002200E0521C835C8C5C60
:10035000A34201D1002BF8D1D8B2E1B2401A10BDAE
:1003600030B505460020034600E05B1C934205D2F1
:10037000EC5CC85C201A01D1002CF6D130BD30B540
:100380000B46014600202022012409E021FA02F553
:100390009D4205D303FA02F5491B04FA02F52844ED
:1003A000151EA2F10102F1DC30BD202A04DB203A47
:1003B00000FA02F1002070479140C2F1200320FAB8
:1003C00003F3194390407047202A04DB203A21FAB6
:1003D00002F00021704721FA02F3D040C2F120025E
:1003E00091400843194670472DE9FE4F804681EA47
:1003F0000300C00F0C46009021F0004123F000459F
:10040000B8EB0200A94105D24046214690461C4661
:100410000B46024623F00040104347D0270DC7F398
:100420000A00C3F30A510290401A019040286BDA87
:10043000C3F3130040F4801B0098924620B10023C0
:10044000D2EB030A63EB0B0B01985946C0F1400253
:100450005046FFF7AAFF06460D4650465946019AF8
:1004600000F08CF910EB08006141002487EA11527A
:1004700084EAE7731A4340D0009A62B3019A012AD2
:100480004FEA075215DC001B61EB02014FF00042FE
:1004900002EA0752CDE90042001C41F580113246C4
:1004A0002B4600F08CF903B0BDE8F08F40462146A2
:1004B000F9E7001B61EB0201001C41F580130018F5
:1004C0005B412018A2F5001747EB030140EAD57005
:1004D000B6196D4111E06D084FEA360645EAC07560
:1004E0004FEA0752001B61EB0201001C41F580112D
:1004F00049084FEA30000019514132462B4603B0FB
:10050000BDE8F04F00F04CB90098012240000023F4
:10051000D0EB020263EBE073009821464FEAE074EF
:10052000B8EB000061EB0401E9E783F000435BE70F
:1005300081F0004158E72DE9FE4F81EA030404F001
:10054000004421F0004100944FF0000B23F00043E1
:1005500050EA01045ED052EA03045BD0C3F30A54AC
:10056000C1F30A552C44A4F2F3340194A0FB0254C5
:10057000C1F3130141F48011C3F3130343F4801357
:1005800001FB024400FB034E840A970A44EA8154AB
:1005900047EA8357A4FB076802958D0A05FB078588
:1005A0004FEA932C04FB0C542705029D4FEA065892
:1005B00047EA1637B5EB08056EEB070C870E920E6F
:1005C00047EA811742EA8312A7FB0201B6EB0B014F
:1005D00064EB00042B0D43EA0C335E1844EB1C5013
:1005E000DA465146E7FB0201C5F313044FEA0B3329
:1005F00043EA14534FEA0432019C43EA0603A4F190
:100600000C040294009CCDE900B400F0D8F803B0CB
:10061000BDE8F08F00200146F9E72DE9F04D81EAB1
:10062000030404F0004B21F0004514464FF0000A8B
:1006300023F0004150EA050220D054EA01021DD007
:10064000C5F30A570246C5F31303C1F31300C1F300
:100650000A5640F4801543F48013A7EB0608101BDC
:10066000D64608F2FD3873EB050002D308F1010805
:1006700001E092185B41B8F1000F03DA0020014657
:10068000BDE8F08D00204FF48011064684460EE050
:10069000171B73EB050705D3121B63EB050306431A
:1006A0004CEA010C49084FEA300092185B4150EACD
:1006B0000107EDD152EA030012D082EA040083EA76
:1006C0000501084305D0101BAB4106D201220023CF
:1006D00006E000224FF0004302E06FF001025310E9
:1006E0001AEB06004CEB085110EB0A0041EB0B0132
:1006F000BDE8F04D00F054B8C1F30A52C1F3130144
:1007000040F2FF3341F480119A4202DA00200146A0
:10071000704740F233439A42A2F2334202DC524223
:10072000FFF752BEFFF741BE30B5041E71F1000461
:1007300004DB4FF00044404264EB0101141E73F1EE
:10074000000405DB1C464FF00043524263EB0403F8
:10075000994208BF904230BD064C074D06E0E06864
:1007600040F0010394E8070098471034AC42F6D3F8
:10077000FFF714FD70BA010890BA0108202A06DBC1
:10078000CB17203A41FA02F043EAE07306E041FA5F
:1007900002F3D040C2F1200291400843194670474D
:1007A00010B5141E73F1000408DA401C41F1000179
:1007B00092185B411A4301D120F0010010BD2DE9D0
:1007C000F04D92469B4611B1B1FA81F202E0B0FAC7
:1007D00080F220329046FFF7E8FD04460F4640EADB
:1007E0000A0041EA0B0153465A46084313D011460A
:1007F00053EA010019D0C8F140025046FFF7E4FD6A
:1008000005460E46504659464246FFF7CEFD084380
:1008100005D0012004E020463946BDE8F08D0020D7
:10082000054346EAE0762C4337430A986305E40A19
:10083000A0EB08000022FD0A44EA47540A3002D522
:1008400000200146E9E7010510196941DDE9084585
:1008500000196941BDE8F04DA2E7FEE7704710B509
:100860004FF4806000F028F8BDE810404FF40050CD
:1008700000F022B8102000F01FB872B6FEE70000AA
:1008800070B5044600F01AF90546601C02D0044811
:100890000078044400F012F9401BA042FAD370BD66
:1008A0007C000020102803D102484168491C4160A7
:1008B0007047000004000020044910B50A68024295
:1008C00002D00860FFF7EEFF10BD0000143C0140AD
:1008D0002DE9F84FDFF8B8A10022012403254FF0DD
:1008E0000F090AF1040BAAF1040E00BF0B6804FA09
:1008F00002F63340B34273D10F7907F00307012F9B
:1009000001D0022F16D187684FEA420805FA08FC89
:1009100027EA0C07D1F80CC00CFA08FC4CEA070CCB
:10092000C0F808C04768B7430E79C6F30016964072
:100930003E4346600E79F643B6070DD0C7685600B1
:1009400005FA06FC27EA0C07D1F808C00CFA06FCE9
:100950004CEA070CC0F80CC00E7906F00306022E14
:1009600010D1D60800EB8608D8F8206057074FEA68
:10097000D76C09FA0CF7BE430F6907FA0CF7374337
:10098000C8F8207006684FEA420C05FA0CF7BE431F
:100990000F7907F0030707FA0CF7374307604E6833
:1009A00016F4403F6DD03B4E376847F480473760C0
:1009B000366822F0030706F480460096364E07EBB1
:1009C000060CDCF8086897073F0F09FA07F826EAD3
:1009D0000806DFF8C880404503D14FF000081EE04C
:1009E0004FE0DFF8BC80404502D14FF0010816E02F
:1009F000DFF8B080404502D14FF002080FE0DFF889
:100A0000A880404502D14FF0030808E0DFF89C8041
:100A1000404502D14FF0040801E04FF0070808FA02
:100A200007F848EA0608CCF80888DAF80060574664
:100A3000D1F804C09E435FEACC2C00D51E433E6033
:100A4000DBF800605F46D1F804C09E435FEA8C2C5F
:100A500000D51E433E60DEF800607746D1F804C042
:100A60009E435FEA8C3C00D51E433E60084F083F22
:100A70003E68D1F804C09E435FEACC3C00D51E43DB
:100A80003E60521C102AFFF431AFBDE8F88F000021
:100A9000083C014044380240003001400000024060
:100AA0000004024000080240000C02400010024016
:100AB0000AB1816170470904FBE7000001488068C2
:100AC000704700007C00002070B5040025D094F829
:100AD0003D00002520B984F83C50204600F0DEFAA5
:100AE000242084F83D002068016821F001010160A4
:100AF0002068016841F4004101602068016821F428
:100B00000041016000F064FC4D4A6168914201D8E7
:100B10004C4900E04C49884201D2012070BD4B494C
:100B20002368B0FBF1F15E6826F03F060E435E607D
:100B30006368934206D94FF4967359434FF47A731E
:100B4000B1FBF3F12368491C1E6A26F03F063143CE
:100B500019626168914210D84900401EB0FBF1F261
:100B6000521CC2F30B02042A01D2042022E0B0FB83
:100B7000F1F0401CC0F30B001CE0A268F2B301EBE3
:100B8000C10303EB0116431EB3FBF6F35B1C43F4F6
:100B900080431B0549D092B301EBC10202EB011166
:100BA000401EB0FBF1F0401CC0F30B0040F480404D
:100BB00040F400402168CA694CF6FF739A43104321
:100BC000C861D4E9071001432068026822F0C0021E
:100BD00011430160D4E9030101432068826848F2AF
:100BE000FF339A4311438160D4E90501084321682A
:100BF000CA6822F0FF021043C86001E00EE016E070
:100C00002068016841F0010101602564202084F81A
:100C10003D00256384F83E50002070BD01EB410685
:100C2000431EB3FBF6F35B1CB3E70120C2E701EB05
:100C30004101401EB0FBF1F0401CC0F30B00B7E7D0
:100C4000A086010080841E0000093D0040420F0084
:100C50002DE9F84F1F4690468A460446DDF8289055
:100C6000FFF72CFF054694F83D00202871D1192389
:100C7000012270492046009501F0F4F80028F5D1D2
:100C800094F83C00012864D0012084F83C002068DE
:100C90000168C90703D1016841F0010101602068C2
:100CA000016821F400610160222084F83D001020D9
:100CB00084F83E0000262664C4F824806785608D91
:100CC00020855D48E0622B464A465146204600F0AA
:100CD00085FF002876D1208D584F68B1012814D0A7
:100CE00002282068016816D041F480610160206804
:100CF0004169806900908EE02068416981690091B6
:100D0000016841F40071016085E02068016821F408
:100D100080610160F0E721F4806101602068016872
:100D200041F40061E2E7032846D801280AD00228EE
:100D300010D04B46002239462046009501F092F82B
:100D4000C8BB25E02A464946204601F031F990BB50
:100D500054E06CE04B46002239462046009501F0F5
:100D600081F840BB2068016841F40071016020688F
:100D70000069616A0870606A401C6062218D491ECA
:100D80002185618D491E618521680969017039E0FD
:100D90002068016821F48061016020680069616A4F
:100DA0000870606A401C6062208D401E2085608D46
:100DB000401E6085CEE705E02A464946204601F000
:100DC000F7F810B10120BDE8F88F20680069616A6A
:100DD0000870606A401C6062208D401E81B22185CF
:100DE000608D401E608520684269D243520712D44C
:100DF000032903D1016821F4806101602068006942
:100E0000616A0870606A401C6062208D401E208507
:100E1000608D401E6085208D002884D1202084F8BC
:100E20003D0084F83E6084F83C600020CBE702205F
:100E3000C9E70000020010000000FFFF04000100ED
:100E40002DE9F84F1F4690468A460446DDF8289063
:100E5000FFF734FE054694F83D0020287FD1192382
:100E6000012240492046009500F0FCFF002876D181
:100E700094F83C00012872D0012084F83C002068DE
:100E80000168C90703D1016841F0010101602068D0
:100E9000016821F400610160212084F83D001020E8
:100EA00084F83E0000262664C4F824806785608D9F
:100EB00020852D48E0622B464A465146204600F0E8
:100EC00003FF90B9206841698069009036E02A46A6
:100ED0004946204601F0A4F850B1206C042804D102
:100EE0002068016841F4007101600120BDE8F88FBD
:100EF000606A216800780861606A401C6062618DE8
:100F0000491E6185218D491E89B221852268536958
:100F1000DB435B070BD451B100781061606A401C61
:100F20006062608D401E6085208D401E20852A46AF
:100F30004946204600F06AFF0028CED1208D0028C7
:100F4000C5D154F83D0B016841F4007101602020C7
:100F500004F81E09E67766770020C7E7FFE702205E
:100F6000C4E70000020010000000FFFF2DE9FF4F62
:100F700083B09A46DDE9119793460446DDF8408038
:100F8000FFF79CFD054694F83D0020287FD11923EA
:100F9000012240492046009500F064FF002876D1E8
:100FA00094F83C00012872D0012084F83C002068AD
:100FB0000168C90703D1016841F00101016020689F
:100FC000016821F400610160212084F83D00402087
:100FD00084F83E0000262664C4F82480A4F82A90F1
:100FE000608D20852C48E062CDE9007553465A4655
:100FF0002046049900F0B6FE70B930E02A46394622
:10100000204601F00DF858B1206C042804D1206866
:10101000016841F400710160012007B0BDE8F08F64
:10102000606A216800780861606A401C6062218DF6
:10103000491E89B22185628D521E628522685369DC
:10104000DB435B070BD469B100781061606A401C18
:101050006062208D401E2085608D401E6085208D41
:101060000028CBD12A463946204600F0CFFE002882
:10107000CAD154F83D0B016841F400710160202091
:1010800004F81E09E67766770020C6E7FFE702202E
:10109000C3E70000020010000000FFFF2DE9F0414F
:1010A00086B0044614216846FFF73AF92368294CB4
:1010B000DFF89CC000272749122601250422264874
:1010C0001034634519D10B6843F002030B600968C3
:1010D00001F0020105914FF440710091CDE90165E5
:1010E000CDE903526946FFF7F3FB206840F4001096
:1010F0002060206800F4001026E0DFF860C063453F
:1011000023D10B6843F002030B600968804601F0AD
:10111000020105914FF480618DE8C200CDE90352D0
:101120006946FFF7D5FB08208DE8C1000920CDE90D
:10113000035069464046FFF7CBFB206840F480002F
:101140002060206800F48000059006B0BDE8F081C2
:101150000054004030380240000402400058004073
:101160000248816802781144816070477C00002049
:101170000B4810B5016841F400710160016841F449
:1011800080610160016841F480710160032000F01A
:1011900073F80F2000F006F800F024F8002010BDCE
:1011A000003C024070B50D4D04464FF47A7128782A
:1011B000B1FBF0F00A490968B1FBF0F000F0B4FBB4
:1011C00048B9102C07D200222146501E00F034F8F6
:1011D00000206C6070BD012070BD00007C0000200C
:1011E000880000200C4882B0016841F48041016011
:1011F000006800F4804000900748001F016841F03B
:10120000805101600068002200F0805000900F21A2
:10121000901E02B000F010B844380240002809DBEC
:1012200000F01F02012191404009800000F1E02000
:10123000C0F8001170470000F0B40E4B1B680C465C
:10124000C3F30223C3F10705042D00D90425191D9A
:10125000072901D2002300E0DB1E012606FA05F172
:10126000491E214099409E40761E16403143F0BCF5
:1012700001F092BA0CED00E0064900F007020868A0
:101280004FF6FF03184040EA0220034A104308606B
:10129000704700000CED00E00000FA052DE9F04772
:1012A0000E46050065D0DFF81481D8F80000F7B2CB
:1012B00000F00700B04207D288F80070D8F80000AC
:1012C00000F00700B04254D128683D4C810712D588
:1012D000400703D5206840F4E050206028780007DC
:1012E00003D5206840F4604020602068A96820F0A1
:1012F000F000084320602878C0072DD03049686886
:101300000839012812D0022813D0032811D0096807
:10131000890700292DDA216821F0030101432160AA
:10132000FFF7CCFB814641F2883A0EE00968890359
:10133000EFE709688901ECE7FFF7C0FBA0EB0901C3
:10134000514502D90320BDE8F0872068696800F0A4
:101350000C00B0EB810FEFD1D8F80010404601F03F
:101360000701B14207D90770006800F00700B042DA
:1013700001D00120E7E72878400705D52068E96813
:1013800020F4E050084320602878000706D5206844
:10139000296920F4604040EAC100206000F038F87C
:1013A0002168084AC1F30311515CC840064908602E
:1013B00006480068FFF7F6FE0020C4E7003C024044
:1013C0000838024049B7010888000020800000204A
:1013D0000448054900680968044AC1F38221515C48
:1013E000C8407047880000200838024059B70108FB
:1013F0000448054900680968044AC1F34231515C58
:10140000C8407047880000200838024059B70108DA
:10141000154810B5006810F00C02144813D04110A4
:10142000042A0FD0082A0ED10F4C241F22682368EB
:1014300002F03F025B0207D52068C0F38810A0FBD2
:10144000010106E0084610BD2168C1F38811A1FB27
:1014500000010023FEF71AFF2168C1F30141491C76
:101460004900B0FBF1F010BD083802400024F40040
:101470002DE9F84F04006ED02078DFF84C93C007B8
:10148000A9F104054AD009F104000168C1F3810102
:10149000012908D00068C0F3810002280AD1D9F8D8
:1014A0000000400206D52868800337D56068002810
:1014B000E1D033E06068B0F5803F10D0B0F5A02FE8
:1014C000286810D020F480302860286820F480201C
:1014D00028606068A8B1FFF7F1FA06460DE02868B9
:1014E00040F48030F4E740F480202860F7E700BF44
:1014F000FFF7E4FA801B642873D828688003F7D5C7
:101500000CE0FFF7DBFA064605E000BFFFF7D6FA6E
:10151000801B6428F0D828688003F7D42078DFF88F
:10152000AC8280074FF0000A3ED5A748001D016835
:1015300011F00C0F08D00068C0F3810002280BD115
:10154000D9F80000400207D42868800716D5E06863
:10155000012800D112E033E1E068B8B10120C8F8F9
:101560000000FFF7ABFA064605E000BFFFF7A6FA5A
:10157000801B0228C0D828688007F7D52868216911
:1015800020F0F80040EAC10028600DE0C8F800A093
:10159000FFF794FA064604E0FFF790FA801B022852
:1015A0001FD828688007F7D42078000722D5864FF7
:1015B00087486169703771B101210160FFF77EFAD8
:1015C000064604E0FFF77AFA801B022809D838683B
:1015D0008007F7D50EE0C0F800A0FFF76FFA0646C7
:1015E00005E082E0FFF76AFA801B02287DD83868A0
:1015F0008007F7D42078400768D5DFF8CCB1002702
:101600000BF13C0BDBF80000C0000BD4DBF8001042
:1016100041F08051CBF80010DBF80000012700F00A
:10162000805000906B4E3068C00510D4306840F494
:1016300080703060FFF742FA009005E0FFF73EFA55
:101640000099401A022850D83068C005F6D55E4E81
:10165000A0686C3601280FD00528306810D020F023
:1016600001003060306820F004003060A068B8B13C
:10167000FFF724FA00900FE0306840F00100F4E733
:1016800040F004003060F7E7FFF718FA0099411ABC
:1016900041F28830814266D830688007F4D50EE088
:1016A000FFF70CFA009007E0FFF708FA0099411ADB
:1016B00041F28830814256D830688007F4D42FB187
:1016C000DBF8001021F08051CBF80010A069C8B3FE
:1016D0003D49091D0968C1F3810102294AD0022848
:1016E000504607D0C8F8600000E03CE0FFF7E6F99C
:1016F00004463BE04746C8F86000FFF7DFF90646BE
:1017000005E000BFFFF7DAF9801B02282BD8286814
:101710008001F7D4D4E907010843A16A2E4A490899
:1017200002EB0141626A41EA8211084394F82C10ED
:1017300040EA0161C9F8001001203866FFF7BEF9E0
:10174000044606E03EE000BFFFF7B8F9001B0228A0
:1017500009D828688001F7D534E000BFFFF7AEF95B
:10176000001B022802D90320BDE8F88F28688001F9
:10177000F4D427E00128F7D0D9F80000E26900F49A
:10178000800191421CD1226A00F03F01914217D1A1
:1017900047F6C071626A0140B1EB821F10D1A26AA4
:1017A0004FF0FF3300F4403103EB5202B1EB024F34
:1017B00006D194F82C1000F07060B0EB016F01D0EE
:1017C0000120D1E70020CFE7043802400000474263
:1017D000800E4742007000400000FFFF70B504001B
:1017E00009D0606A002540B125616561A56294F861
:1017F000510040B10CE0012070BD6068B0F5827FFF
:10180000F4D0E561F2E784F85050204600F044F847
:10181000022084F851002068016821F04001016035
:10182000A088218900F4827001F404410843A18951
:1018300001F400610843217C01F002010843217D8D
:1018400001F001010843218B01F400710843217F5D
:1018500001F03801084394F8201001F0800108439A
:10186000218D01F40051084321680860A06904211A
:1018700001EA104094F8241001F010010843216897
:1018800048602068C16921F40061C161656501207B
:1018900084F85100002070BDF0B587B004461421D3
:1018A0006846FEF73DFD1C492068884232D11B483E
:1018B0000024016841F480410160006800F4804028
:1018C000059016481038016841F004010160016874
:1018D00001F004010591016841F002010160006816
:1018E000022500F0020005900C20CDE9000502AAB7
:1018F0000326052782E8D00069460948FEF7E8FF7D
:101900002803CDE9000502AA694682E8D00005480F
:10191000FEF7DEFF07B0F0BD00380040403802405F
:10192000000802400004024010B5401EB0F1807F64
:1019300001D3012010BD4FF0E02460610F2160173A
:1019400000F02AFF0020A06107202061002010BDC8
:1019500070B5040004D094F84100002510B106E0F1
:10196000012070BD84F84050204600F023F8242068
:1019700084F841002068C16821F40051C16020460C
:1019800000F09EFD2068016921F49041016120680A
:10199000416921F02A0141612068C16841F4005188
:1019A000C1606564202084F8410084F842006563CA
:1019B000002070BD30B587B0044614216846FEF79C
:1019C000AFFC224D23680021214A02242148AB426A
:1019D00018D11F4B10331D6845F400351D601B687E
:1019E00003F400330593136843F001031360126896
:1019F00002F0010205920C220092CDE9014103910F
:101A000007211CE0144DAB421DD1114B14331D684E
:101A100045F020051D601B6803F020030593136843
:101A200043F001031360126802F0010205924FF4C3
:101A3000C0520092CDE90141032103910821049194
:101A40006946FEF745FF07B030BD00000044004086
:101A50003038024000000240001401402DE9F84FE8
:101A6000044690F842009A4616460D46202802D0B9
:101A70000220BDE8F88FB5B1AEB10020606422212C
:101A800084F842102063FFF719F8A6858146E685A1
:101A9000A0684FF480582027404501D1206920B12B
:101AA0002E46002529E00120E3E7002625E04B46ED
:101AB000002220212046CDF800A000F087FD18B1BB
:101AC00084F842700320D4E726B1A06840451AD0BC
:101AD00038B108E020684068C0F3080025F8020B20
:101AE00008E0206978B12068406800F07F0000BFFE
:101AF00006F8010BE08D401EE085E08D0028D6D170
:101B000084F84270B5E720684068F1E72DE9F843B2
:101B1000044690F84100984616460D46202802D00B
:101B20000220BDE8F88385B17EB1002060642120E9
:101B300084F84100FEF7C2FFA6848146E684A068CF
:101B40002027B0F5805F02D003E00120E9E720699B
:101B500010B12E4600250EE000260CE08021204624
:101B600000F034FDA8B9C6B116F8010B2168486031
:101B7000E08C401EE084E08C4B464FF00002CDF834
:101B800000800028EAD14FF04001204600F01EFD01
:101B900040B184F841700320C3E735F8020BC0F36D
:101BA0000800E3E784F841700020BAE7FEE7016827
:101BB0004A69D24352050FD46FF480624A61002112
:101BC00040F8301F202242738173026942F0040200
:101BD0000261017301207047002070472DE9F84F22
:101BE0000446C06A1E4693460D4621680A6842F4C0
:101BF00080620A60082807D0012805D010F5803FD0
:101C000002D0206B112804D12068016841F4807152
:101C100001604FF001195B460022494620460096BC
:101C200000F020F94FF4007840B120680068C0054A
:101C300001D5C4F840800320BDE8F88F2069DFF8A3
:101C400084A0B0F5804F0FD00620216800EAD51798
:101C500047F0F000086133465A460AF10601204673
:101C600000F048F958BB03E0E8B240F001001CE086
:101C70002168E8B2086133465A465146204600F0D2
:101C800039F9E0B92068416981690091016841F43E
:101C9000807101605B46002249462046009600F0B4
:101CA000E1F80028C1D147F0F1002168086133460E
:101CB0005A465146204600F01DF90028BCD00120AC
:101CC000BAE7000002000100F8B50446C06A1E46EB
:101CD0000D461746082807D0012805D010F5803F8B
:101CE00002D0206B122804D12068016841F4807171
:101CF0000160134600224FF001112046009600F0CB
:101D0000B1F840B120680068C00502D54FF40070FA
:101D100020640320F8BD2069B0F5804F0ED0062066
:101D2000216800EAD51040F0F000086133463A46D9
:101D30000B49204600F0DEF878B902E005F0FE001D
:101D400000E0E8B221680861054933463A46891F38
:101D5000204600F0CFF80028DCD00120F8BD0000BC
:101D6000080001002DE9F843044600680D46DDE94E
:101D7000089701689846164641F4807101604B4609
:101D800000224FF001112046009700F06BF848B197
:101D900020680068C00502D54FF40070206403205D
:101DA000BDE8F883216805F0FE0008613B464A461D
:101DB0001549204600F09EF888B92068416980697D
:101DC00000903A464946204600F02AF948B1206C76
:101DD000042804D12068016841F4007101600120E9
:101DE000DEE7F5B2B8F1010F09D02168300A0861C9
:101DF0003A464946204600F013F90028E7D120680A
:101E000005610020CCE700000200010070B5164615
:101E10000D4604461EE02046FFF7C9FE08B101202A
:101E200070BD681C16D0FEF749FE801BA84200D882
:101E300085B920684069C04340070BD5002044F8AD
:101E4000300F20216173A073216941F020012161CD
:101E50002073E4E720684069C0434007DBD40020DA
:101E600070BD00002DE9F047984617460D46044620
:101E7000C1F30746DDF820902AE000BFB8F1FF3F2C
:101E800026D0FEF71BFEA0EB0901414502D8B8F1B0
:101E9000000F1DD12068012E16D0806925EA0000B0
:101EA0000004000C12D00020B84211D1002044F8E8
:101EB000300F20216173A073216941F0200121615D
:101EC00020730120BDE8F0874069E7E70120EBE7D8
:101ED0002068012E0AD0806925EA00000004000C69
:101EE00006D00020B842C9D00020EBE74069F3E7F4
:101EF0000120F7E72DE9F047984616460D460446BF
:101F00004FF000094FF0200AC1F3074723E0206893
:101F10004069C043400515D42068016841F4007150
:101F2000016021686FF480604861C4F8309084F8E3
:101F30003DA084F83E90216C41F00401216484F8B6
:101F40003C9021E0701C06D0FEF7B8FDA0EB080025
:101F5000B04203D816B1012F1FD021E02068012F15
:101F600015D0806925EA00000004000C18D000BFDD
:101F700044F8309F84F80DA084F80E90216941F058
:101F80002001216184F80C900120BDE8F0874069B0
:101F900025EA00000004000CEAD12068406901E055
:101FA0002068806925EA00000004000CAFD1ECE74E
:101FB0002DE9F041002590460E460446202728E0F2
:101FC0004069C043C0060CD454F8301B6FF01000B9
:101FD000486144F810596777A577206A2062257711
:101FE00014E0FEF76BFDA0EB0800B04200D886B904
:101FF00020684069C04340060BD544F8305F6773E2
:10200000A573206940F02000206125730120BDE800
:10201000F08120684169C9434906D1D40020F6E720
:1020200070B516460D4604461EE02046FFF7BFFD7C
:1020300008B1012070BD681C16D0FEF73FFD801B63
:10204000A84200D885B920684069C04300060BD576
:10205000002044F8300F20216173A073216941F002
:10206000200121612073E4E720684069C043000635
:10207000DBD4002070BD000010B596B01C221149C1
:102080006846FEF734F90021684601F050FA0E4C1C
:102090000C491C2260601C3107A8FEF728F90021BA
:1020A00007A801F044FA0749A0601C2238310EA8A5
:1020B000FEF71DF900210EA801F039FAE06016B014
:1020C00010BD0000505E0008100000202DE9F04116
:1020D00086B014216846FEF723F9404800240168C1
:1020E00041F004010160016801F0040105910168FB
:1020F00041F080010160016801F0800105910168F3
:1021000041F001010160016801F0010105910168E0
:1021100041F0020101600068DFF8C48000F00200B5
:102120000590012220214046FEF7C2FC2D4F0022DF
:1021300001213846FEF7BCFC4FF4407600223146C0
:102140004046FEF7B5FC4FF400504FF40415CDE9BE
:102150000005694602942448FEF7BAFB1020CDE939
:102160000005694602944046FEF7B2FB202000902D
:102170000125CDE90154694640460394FEF7A8FBCA
:102180000095CDE90154694638460394FEF7A0FB5B
:102190000220CDE90240CDE9006569464046FEF7E0
:1021A00097FBA80200904FF48810CDE9010469461E
:1021B0004046FEF78DFB002205210A20FFF73CF880
:1021C0000A20FFF72BF8002205212820FFF734F81A
:1021D0002820FFF723F806B0BDE8F0813038024030
:1021E0000000024000040240000802400D4810B503
:1021F0000B4901600C49416000214FF4804281602D
:10220000C0E9031241618161C1610162FEF75CFCBA
:10221000002803D0BDE81040FEF72FBB10BD000022
:10222000005400404C130020A08601000D4810B55A
:102230000B4901600C4941600021A422C0E902124F
:102240004FF48042C0E904218161C1610162FEF75F
:102250003BFC002803D0BDE81040FEF70EBB10BDCC
:1022600000580040A0130020A0860100104810B5BF
:102270000E4901604FF482714160002102228160A9
:10228000C0E903121202C0E905123822C26180229D
:10229000C0E9082181620A21C162FFF79FFA002884
:1022A00003D0BDE81040FEF7E8BA10BD003800408A
:1022B000F41300200C4810B50A4901604FF4E131D5
:1022C0004160002181600C22C160C0E9041281617B
:1022D000C161FFF73DFB002803D0BDE81040FEF7C9
:1022E000CCBA10BD004400404C1400200C4810B57E
:1022F0000A4901604FF4E1314160002181600C2204
:10230000C160C0E904128161C161FFF721FB0028AF
:1023100003D0BDE81040FEF7B0BA10BD0014014074
:1023200094140020FEE7FEE7012001F0F4F8FBE73B
:10233000012001F0F0F8FBE70AA000F0DBF90F48FC
:1023400003F02AF910F0FF010D48017008D00DA02C
:1023500000F0D0F94FF47A74204601F0DCF8FBE786
:1023600000F0E4FE546F462052616E67696E67208C
:102370007374617274732E2E2E0D0A00F800002003
:1023800000000020546F46207374617274207261E3
:102390006E67696E67206661696C656420212045FF
:1023A000727220636F64653A2025640D0A00000094
:1023B00010B5FEF7D5FE03F0EFFB012803D0BDE812
:1023C000104003F021BA10BD30B593B030216846FB
:1023D000FDF7A6FF14210CA8FDF7A2FF1E4800245C
:1023E000016841F080510160006800F08050119058
:1023F0001A48016821F4404141F40041016000683D
:10240000022500F440401190012003901020009517
:1024100006950490CDE907404FF4A8700990042078
:102420000A9007200B906846FFF722F808B172B6B1
:10243000FEE70F20CDE90C054FF48050CDE90E40AA
:1024400002210CA81094FEF729FF002801D072B6D3
:10245000FEE713B030BD000040380240007000407D
:102460000248016841F470010160704788ED00E0A6
:1024700001680C3151E8002F22F4907241E80023EA
:10248000002BF5D10168143151E8002F22F0010230
:1024900041E80023002BF5D1016B012909D1016826
:1024A0000C3151E8002F22F0100241E80023002BEC
:1024B000F5D1202180F8421000210163704700000F
:1024C00070B5044600680169E26821F44051114387
:1024D00001612169A068E269084361691143084309
:1024E0002168CA6849F20C639A430243CA602068B3
:1024F0004169A26921F44071114341613149206869
:10250000884202D03049884202D1FEF771FF01E0D3
:10251000FEF75EFFE2690023192164253226B2F539
:10252000004F626828D0A0FB0101930F9200FDF7D5
:10253000ADFE0146B0FBF5F06FF01802504301EB21
:10254000800006EB0010B0FBF5F000F0F002B1FBEC
:10255000F5F002EB0012B1FBF5F06FF018035843F1
:1025600001EB800006EB0010B0FBF5F000F00F006F
:1025700021681044886070BDA0FB010192185B4186
:10258000FDF784FE0146B0FBF5F00201B1FBF5F06A
:102590006FF01803584301EB800006EBC000B0FB5E
:1025A000F5F000F0F80002EB4002B1FBF5F0584303
:1025B00001EB800006EBC000B0FBF5F000F0070077
:1025C000D6E7000000100140001401402DE9F84357
:1025D000984617460D460446089E24E0701C22D0FB
:1025E000FEF76CFAA0EB0800B0421AD8CEB1206812
:1025F000C168490717D5802D15D0402D13D001682B
:10260000C94309070FD4016800254068009020469F
:10261000FFF72EFF0820606484F840500120BDE8D9
:10262000F8830320FBE72068006835EA000004D047
:102630000020B842D2D00020F1E70120F9E7FEE700
:102640002DE9FC410446080A8DF8040064261D4665
:1026500090468DF8051000962188022301AA0748AC
:10266000FEF7EEFB07460096ABB2218842460348D0
:10267000FEF7EEFA3844C0B2BDE8FC814C130020EE
:1026800030B5002208E084182368E5781BBA23F0EF
:10269000FF032B432360121D8A42F4D330BD10B5D3
:1026A0000846FEF7EDF8002010BD00001CB50B0A2F
:1026B0008DF804308DF805108DF806206421009106
:1026C0000188032301AA0248FEF7BAFB1CBD0000E3
:1026D0004C1300203EB54FF6FF749BB28DE81C00F2
:1026E00000880A46014610230148FEF73FFC3EBD24
:1026F0004C1300200FB4054B10B503A9044A0298EF
:1027000000F02CF910BC5DF814FB00001531000836
:10271000F40000200FB41CB50246002007AC0029CD
:102720000BD0491ECDE90021054B6A46214606988B
:1027300000F014F9009A002111701CBC5DF814FB24
:102740008B3000080FB4084B10B504A902AA0398F7
:1027500000F004F9044602A9002000F0A1FC204684
:1027600010BC5DF814FB0000A13000087CB50446E5
:1027700000201D46164600290BD0491ECDE9004118
:10278000044B6A462946304600F0E8F8009A0021DA
:1027900011707CBD8B3000080907090E002804DB8E
:1027A00000F1E02080F80014704700F00F0000F105
:1027B000E02080F8141D704702E008C8121F08C10D
:1027C000002AFAD170477047002001E001C1121FB2
:1027D000002AFBD1704700002DE9FF5F82B0002185
:1027E000DDE90430020DDDF840B0034318D044F6B3
:1027F0001050A2F2FF3242431514119801281FD045
:10280000A5EB0B00401C5FEA000A4FF000064E4F9C
:10281000DFF83891B046504615D5CAF1000413E0F0
:10282000119801244AA3012801D16FEA0B010298F3
:10283000119AC0E90031C0E9024206B0BDE8F09F3C
:10284000CBF10000DFE704460021404A491842EB83
:102850000450CDE9001012E0E00707D032463B46B5
:1028600040464946FDF767FE8046894632463B466C
:1028700010461946FDF75FFE06460F466410002C11
:10288000EAD1DDE90401DDE90023BAF1000F06DA3F
:10289000FDF751FE42464B46FDF74DFE05E0FDF7C4
:1028A000BCFE42464B46FDF7B8FE04460E460022EB
:1028B000284BFDF739FF03D84FF0FF30014607E002
:1028C0000022254B20463146FDF78EFDFDF714FF13
:1028D000102409E0002C0ADB0A220023FDF7D6FCB5
:1028E000039B30321A55641E50EA0102F2D1641C77
:1028F000039AC4F111031444119A012A03D001224E
:1029000008430DD10AE0084304D000204FF0110B1A
:10291000119072E7A3EB0B056D1E0DE05B4504DD26
:102920004FF0000205F1010504E003DA4FF0000268
:10293000A5F10105002AECD002981199C0E90231F5
:10294000C0E9004579E70000000014400000F03FB6
:10295000300000000000F0430000E03F2DE9FF4F91
:1029600095B09B468946064600250FE2252877D17B
:1029700000242746F84A0121059400E0044316F894
:10298000013F203B01FA03F01042F7D130782A28AA
:1029900011D06FF02F033078A0F13002092A16D839
:1029A000059A44F0020402EB820203EB4202104457
:1029B000761C0590EFE759F8042B0592002A03DAFC
:1029C000504244F40054059044F00204761C3078E0
:1029D0002E2816D116F8010F44F004042A280DD031
:1029E0006FF02F023078A0F13003092B09D807EBE4
:1029F000870302EB4303C718761CF3E759F8047BFF
:102A0000761C30786C280FD006DC4C2817D068284C
:102A10000DD06A2814D104E0742810D07A280FD180
:102A20000DE044F400140AE044F4801401E044F49E
:102A300040147278824202D104F58014761C761C10
:102A4000307866280BD013DC582877D009DC0028B2
:102A500075D04528F6D04628F4D047281AD19DE1F4
:102A600018E0632835D0642879D0652812D195E123
:102A7000702873D008DC6728F1D069286FD06E28E1
:102A80000DD06F2806D1B5E073282CD0752875D0ED
:102A9000782874D05A46179990476D1C75E1C4F395
:102AA0000250022809D003280DD0D9F800100428BC
:102AB0000DD00D6009F1040967E1D9F80010EA179B
:102AC000C1E90052F6E7D9F800100D80F2E70D7069
:102AD000F0E719F8041B8DF8001000208DF80100B4
:102AE000EA46012003E059F804AB4FF0FF306107DC
:102AF0004FF0000102D40DE008F101018846B9420F
:102B00000FDA8045F8DB1AF808100029F4D108E044
:102B100008F1010188468142FADB1AF80810002901
:102B2000F6D105985B46A0EB080721463846179A70
:102B300000F094FA284400EB080507E04DE029E195
:102B40000DE01AF8010B5A4617999047B8F10108A1
:102B5000F7D25B4621463846179A13E142E00A2233
:102B60000092C4F302524FF0000A022A08D059F82A
:102B700004CB032A4FEAEC710AD00DE029E02AE0E9
:102B800009F1070121F00702F2E802C1914609E0CC
:102B90000FFA8CFC4FEAEC71042A03D14FFA8CFC3B
:102BA0004FEAEC71002907DA0A460021DCF1000C3B
:102BB00061EB02012D2202E0220504D52B228DF8C3
:102BC0000420012203E0E20701D02022F7E790462B
:102BD00059E00A2102E010220DE010214FF0000A16
:102BE00000910BE010224FF0000A44F00404082783
:102BF000009203E008224FF0000A0092C4F3025250
:102C0000022A05D059F804CB0021032A08D009E094
:102C100009F1070121F00702F2E802C1914605E03F
:102C20001FFA8CFC042A01D10CF0FF0C4FF00008B5
:102C3000220728D5702806D0009B83F0100353EAA2
:102C40000A0305D00EE040228DF80420012208E09E
:102C50005CEA010206D030228DF804208DF80500D0
:102C600002229046009B83F0080353EA0A030AD12C
:102C70005CEA010201D1620705D530228DF80420FB
:102C80004FF001087F1E582804D034A003900EA8EE
:102C900002900DE036A0F9E753466046009AFDF732
:102CA000F5FA84460398825C0298401E02900270F6
:102CB0005CEA0100F0D1029806A9081A00F1200A86
:102CC000600702D524F4803400E00127574502DD77
:102CD000A7EB0A0000E0002000EB0A010090059835
:102CE0004144401A0590E00306D45B462146179AFA
:102CF000059800F0B3F90544002706E001A85A46FC
:102D0000C05D179990476D1C7F1C4745F6DBE003BB
:102D10000CD55B462146179A059800F09FF90544AB
:102D200004E030205A46179990476D1C0099481EC0
:102D300000900029F5DC08E0029802995A460078D4
:102D4000491C0291179990476D1CBAF10001AAF134
:102D5000010AF1DC65E1000009280100303132335D
:102D600034353637383961626364656600000000C7
:102D700030313233343536373839414243444546B1
:102D80000000000000F058F90544761C3078002857
:102D90007FF4ECAD19B02846BDE8F08F620700D48F
:102DA000062709F1070222F0070CFCE80223E1469E
:102DB00003F000485FEA080C02D00FF2702C0DE01F
:102DC0005FEA045C02D50FF2682C07E05FEAC47C7E
:102DD00002D00FF2602C01E0AFF2700C4FF0FF3820
:102DE00023F00043CDF850C065280CD006DC452800
:102DF00009D046281DD047283DD13DE0662818D08F
:102E000067287ED138E00021112F01DB112000E07E
:102E1000781CCDE9000106A90EA8FFF7DDFCDDE96D
:102E20000F010E9A03910021009207F1010A04910B
:102E30004DE04FF000400097CDE9011006A90EA823
:102E4000FFF7CAFCDDE90F0203920E9B11990022E5
:102E5000DDF80CA00093049211B9791C00EB010A73
:102E6000B7EB0A0004D4C0F1FF3007F1010A049067
:102E7000AAEB0700019044E0012F00DA01270021AE
:102E8000112F01DD112000E03846CDE9000106A92F
:102E90000EA8FFF7A1FCDDE90F010E9A03910021B6
:102EA00004910092BA4621070CD40399514500DAE7
:102EB0008A46BAF1010F05DD009AAAF10101515CC1
:102EC000302908D0B84202DA10F1040F06DA0121E5
:102ED000CDE9011015E0AAF10101E9E7002805DCC0
:102EE000049901440491AAEB000102E0411C514500
:102EF00000DD8A460499401A401C01904FF00040C2
:102F00000290200704D40198504501DBCDF80480DD
:102F100000208DF84F0002980DF14F07B0F1004FDF
:102F200025D02B200E9002984FF0020800280CDAD2
:102F3000404202902D200E9007E00A210298FDF7F2
:102F40001EFA3031029007F8011DB8F10001A8F116
:102F50000108F2DC02980028EFD1791E0E98087063
:102F6000307800F0200040F0450007F8020D12A86C
:102F7000C01B00F107081498007800B1012000EB95
:102F80000A01019801EBE07105984144401A401E86
:102F90000590E00306D45B462146179A059800F099
:102FA0005DF805441498007818B15A46179990476F
:102FB0006D1CE00324D55B462146179A059800F066
:102FC0004DF805441CE00498002807DBDDE9030107
:102FD000884203DD0098405C179901E01799302082
:102FE0005A469047049805F10105401C0490019849
:102FF000401E019004D12E205A46179990476D1C0F
:10300000BAF10001AAF1010ADDDC05E017F8010BB5
:103010005A46179990476D1CB8F10001A8F10108B4
:10302000F4DC5B462146179A0598ABE62D000000BC
:103030002B000000200000002DE9F041044600258F
:103040001E461746880404D405E039462020B047C0
:103050006D1C641EF9D52846BDE8F0812DE9F041CC
:10306000044600251E469046C80301D5302700E0DF
:103070002027880404D505E041463846B0476D1C3A
:10308000641EF9D52846BDE8F0814A68002A06D0BA
:103090000A68531C0B6010704868401E48607047F7
:1030A0000A68531C0B60107070472DE9FF5F002405
:1030B000DDF83CB08A460546264600F5A06987182B
:1030C00053464A4628460399FFF7BAFA40EA0408ED
:1030D0000A212846FFF7E3FA40EA08000446C82E12
:1030E00002D340F0010411E0BAF1040F06D395F8C1
:1030F00002057F2802D344F0420407E097F8000558
:103100000E99761C0840F6B25845D9D104B0204635
:10311000BDE8F09F13B54FF47A7301226946024867
:10312000FEF7F4FC00981CBD94140020DFF88480A6
:10313000214E224D1F49224802F050F8C0B2307093
:1031400098F8001001B118B1052000F0E4F9F1E79A
:103150001C491B4802F00DFA30701849184802F05B
:1031600029F930700024DFF85C901AE005EB840048
:103170002F19436897F80421214613A0FFF7BAFAE4
:1031800097F8040148B105EB440097F88414B0F9AE
:10319000C4231CA0FFF7AEFA02E025A0FFF7AAFAAD
:1031A000641C99F800008442E0DB2CA0FFF7A2FA2F
:1031B000C0E700000C00002000000020A80B002049
:1031C000F80000200D0000205A6F6E65203A20257F
:1031D00032642C204E622074617267657473203AE9
:1031E000202532752C20416D6269656E74203A206D
:1031F00025346C75204B6370732F73706164732C6E
:1032000020000000546172676574207374617475E6
:1032100073203A202533752C2044697374616E63E2
:1032200065203A20253464206D6D0D0A00000000F1
:1032300054617267657420737461747573203A20E9
:103240003235352C2044697374616E6365203A20F1
:103250004E6F207461726765740D0A000D0A0000DC
:103260002DE9FF4F83B01C0016464FF000077CD0BD
:103270000398401C04D0039841790498814274D388
:1032800044481346CDE9004043A2FF214A48FFF7D6
:1032900041FA03B2DDE90301474A00F0F3F826F0F2
:1032A0000F05A146701B48440F3020F00F08DFF8CF
:1032B00008B168E0DA460BEB07002A463FA1FFF7AA
:1032C00041FAC4190027E819B04203D306EB0901FB
:1032D00088420AD320200AF80400641C0AF804007B
:1032E000641C0AF80400641C06E0EA5D0AEB0400B2
:1032F00037A1FFF727FA04447F1C102FE3DB7C2162
:1033000050460AF80410641C4FF0200A00F804A08C
:1033100000278346641CE819B04203D306EB090179
:10332000884202D30BF804A00EE0EA5DA2F120006F
:103330005E2806D80BEB040027A1FFF703FA04442C
:1033400003E02E210BF80410641C7F1C102FE2DB1D
:103350000BF804A0641C7C210BF80410641C0D21E4
:103360000BF804100A21641C00E00FE00BF80410B5
:10337000DDE90301641C23B20F4A00F083F8002743
:10338000A8F110081035B8F1000F93D107B0BDE8CF
:10339000F08F000028BA01086D656D6F7279206F9B
:1033A00066203078253038782C2073697A653A2089
:1033B00025643A0D0A2573007C1700201B5B33310E
:1033C0006D3078253038783A201B5B33396D00003A
:1033D0002530327820000000256300000EB508B1CA
:1033E00041710EBD0948852204A18DE80700012125
:1033F000002307A2881E00F02BF80EBD2E2E5C7352
:1034000068656C6C5C6C6F672E6300003DB70108EB
:103410001B5B33316D45282564292025733A1B5BDE
:1034200033396D20226C6F6722206173736572746B
:10343000206661696C65642061742066696C653A18
:103440002025732C206C696E653A2025640D0A00D6
:103450000FB470B50C46054607ABFF210848069A25
:10346000FFF784F94FF48071884200DD084603B20B
:10347000034A2146284600F005F870BC5DF814FBAD
:103480007C1700202DE9F0410D461E46411C0DD051
:1034900000281FD0017900291CD04179A94219D3F5
:1034A0000268BDE8F04119460B4810470A4F002456
:1034B000B7F1140757F8240040B1017931B14179CF
:1034C000A94203D30268314603489047641C24B2E2
:1034D000052CEFDBBDE8F0817C170020FDF748FEEE
:1034E000FEF772FFFEF7F2FDFEF780FEFEF7E2FE4A
:1034F000FEF7FCFEFEF79AFEFEF7B8FE01F080FC38
:10350000FEF7BAFD00F00EF8FEE701460020842920
:1035100000D0C81C704710B500B9012001F0A6FD0D
:10352000002010BD10B501F0EDFD002010BD7FB5ED
:103530000D4604464169B0F9080081B1A16971B135
:10354000FFF7E3FFD4E905128DE80700D4E9001086
:103550002B46226902F0F5FA039004B070BDFFF724
:10356000D4FF03A9CDE90001208A2B4682B2D4E919
:10357000001002F0B9FA012801D00020EDE703980D
:10358000EBE700002DE9F041184C0F460546E668D0
:103590002068001D01F0A2FC38B9206890F82C10BA
:1035A00001208840216981432161681C07D137B11E
:1035B0002168BDE8F0410E48091D01F0D3BC206828
:1035C0003544B5424560216805D2A06BBDE8F041A5
:1035D000091D01F0AFBC606B091D01F0ABFCA06AD6
:1035E000854200D2A562BDE8F08100008C00002079
:1035F000581900202DE9F041054601F0BFFC2E4C82
:10360000A068401CA06020682C4F10B1606940B3D6
:103610002DE02560A068012829D1002606EB860050
:1036200007EB800001F078FC761C072EF6D32348C8
:103630008C3001F071FC2148A03001F06DFC1F4876
:10364000B43001F069FC1D48C83001F065FC1B482E
:10365000DC3001F061FC19488C3060631430A063E9
:1036600005E02068E96AC06A884200D82560606A7F
:10367000401C6062E96A0120226988401043206191
:1036800001EB810007EB8000291D01F06BFC01F0CC
:1036900095FC606900280CD02068E96AC06A8842FD
:1036A00007D207494FF080500860BFF34F8FBFF338
:1036B0006F8FBDE8F08100008C0000207C18002096
:1036C00004ED00E02DE9F041856B17460446002625
:1036D000026C82B1C7B1E068FCF709FEE168206CBA
:1036E000091AE1602268914202D2A168081AE060DA
:1036F000022F16D017E02068A8B9A06802F0C0FA1F
:1037000006460020A0600EE06068FCF7F0FD216C2A
:10371000606808446060A168884204D320686060E3
:1037200001E005B16D1E6D1CA5633046BDE8F0815A
:1037300010B5044690F8510058B101280CD0022869
:103740000FD0502080F31188BFF34F8FBFF36F8FDE
:10375000FEE7206B01F046FC2046BDE8104001F07A
:1037600041BC10BD10484FF47051420706D0C01D37
:103770000D4920F00700411AC1F570510B4A002392
:103780000144C2E900030839183A21F00701116029
:103790004B600B600B1AC0E9001393604FF00040C0
:1037A00053605061704700006C190020E000002059
:1037B000144E154CA6F1C8074FF08058DFF84C9016
:1037C00012E000BF01F0DAFBF068C568281D01F0C7
:1037D00085FBA068401EA0606068401E606001F02C
:1037E000EDFB2846FFF7A4FF60680028EAD138689F
:1037F0000128F9D9C9F80080BFF34F8FBFF36F8F4D
:10380000F2E70000441900208C00002004ED00E0E5
:10381000002807D00021816001600B460A46C16084
:1038200002F078B870470346009829B10260C0E9F9
:103830000F31012102F02AB80060F8E72DE9F047C6
:103840009A46DDE9098481466FF00303206B03EBA0
:1038500082021044089E20F00707780707D0502006
:1038600080F31188BFF34F8FBFF36F8FFEE7002502
:1038700061B1002023180A5C83F834200A5C12B17D
:10388000401C1028F6D384F8435001E084F83450EB
:10389000072E00D30626E662C4E91165201D01F05B
:1038A00046FB04F1180001F042FB2461C6F1070059
:1038B0006462A061E56484F8505052464946384637
:1038C00000F0F6F82060B8F1000F01D0C8F8004011
:1038D000BDE8F08730B5114900E011460A68824220
:1038E000FBD34B685C18844203D14068184448609D
:1038F000084643681C18944209D1084C183C2468B7
:10390000A24209D052681A4442600A6812680260F2
:10391000814200D0086030BD0460F9E7E00000207B
:103920000648416B096829B1416BC968C968496893
:10393000816270474FF0FF31FAE700008C000020F1
:1039400008484068401C4FF0500080F3118804D0B4
:10395000BFF34F8FBFF36F8FFEE7BFF34F8FBFF300
:103960006F8FFEE7E80000202DE9F041044601F0EA
:1039700005FB94F9455004F1240609E0606A48B15A
:10398000304602F0C9F908B101F09EFB6D1E6DB220
:10399000002DF3DC4FF0FF3684F8456001F00EFB9C
:1039A00001F0ECFA94F9445004F1100709E02069A1
:1039B00048B1384602F0B0F908B101F085FB6D1E40
:1039C0006DB2002DF3DC84F84460BDE8F04101F0F5
:1039D000F5BA00002DE9F0410546002701F0C8FBCB
:1039E000324E306808B9FFF7BDFE706905424ED10E
:1039F000C5B3083568070ED005F00700C0F1080010
:103A00000544680707D0502080F31188BFF34F8F1B
:103A1000BFF36F8FFEE72DB37068854237D8234818
:103A2000183001460C6801E020460C466168A94246
:103A300002D221680029F7D131688C4227D007686B
:103A40002168016060680837411B10290FD960198F
:103A5000420708D0502080F31188BFF34F8FBFF387
:103A60006F8FFEE713E041606560FFF733FF616829
:103A70007068401A7060B268904200D2B06070699D
:103A800001430020C4E90001F068401CF06002F02E
:103A90007DF9780707D0502080F31188BFF34F8F4E
:103AA000BFF36F8FFEE73846BDE8F081C800002005
:103AB00010B5031F4FF080741C601B1F21F0010123
:103AC0001960191F044B0B6014390A60091F6FF04D
:103AD000020244380A6010BD41390008012100F09B
:103AE0004DB80B784BB14A7802F00F02082A04D087
:103AF00002685AB11278134208D090F86000C007EB
:103B000002D14878C00601D5002070474FF0FF3041
:103B10007047000010B500F093FA002805D0034963
:103B2000896BBDE8104001F059B910BD2400002098
:103B3000F8B505468089E989401A04B2202607E0D5
:103B40008DF80060AA6E012168469047641E24B279
:103B5000002CF5DC297B2846BDE8F84000F07AB857
:103B600010B500F06DFA002803D0BDE8104000F059
:103B700075BC10BD4FF0FF31AFF30080F8B50446BF
:103B8000481C03D00023E28912B103E00123FAE7C5
:103B900001295DD0A089824201D14D1C58D0002559
:103BA000824201D1012901D0184613E0521E401E65
:103BB000E28180B2A08121690D542046BDE8F84021
:103BC000012100F047B822691144421E465C401CA6
:103BD0008E5400B2A289E189521A8242F3DCA08994
:103BE000401EA081082643B9E089401EE0818DF87F
:103BF0000060A26E012168469047A1892069455462
:103C0000B4F90E5009E020690121405D8DF80000F3
:103C1000A26E684690476D1C2DB2A089A842F2DCC6
:103C200020208DF80000A26E012168469047A089EF
:103C3000E189401A401C05B208E000BF8DF8006021
:103C4000A26E0121684690476D1E2DB2002DF5DC55
:103C5000F8BD000070B50C46054603E003A12846F8
:103C600001F0BCF8641EE4B2F8D270BD0820080070
:103C70004FF0FF3100F092BA10B5044600F006F89C
:103C80002046BDE81040012101F03AB8F8B50446DD
:103C9000808900283CD021690025224E0D5494F8DB
:103CA0006000C00728D0204600F0C4FA0820009029
:103CB000A189202304F11402206900F081FE000490
:103CC000000CE086E581A58122D017A1204601F0F5
:103CD00085F800232046A26D616900F04DFD0100CA
:103CE00004D02046BDE8F84000F0E8BC2046B169A9
:103CF000BDE8F84001F072B8206881682069FCF7DF
:103D000021FB30B1716B204601F068F8A581E58197
:103D1000F8BD94F8600040F0010084F8600031685C
:103D2000F1E70000240000200D0A00000178272997
:103D300006D0014600200A785C2A03D0104670475E
:103D4000411CF7E749786E290FD004DC3029F6D002
:103D5000622904D105E0722905D0742907D00846EC
:103D60007047082070470D2070470A2070470920CF
:103D70007047F0B50746002539780A260123284602
:103D80002C462D2908D00021CA19002192F800C024
:103D9000BCF1300F04D01EE04FF0FF330121F3E7F8
:103DA0005178782907D0582905D0622905D04229B1
:103DB00003D002210FE003210DE001210BE092F876
:103DC00000C0BCF12E0F06D192F801C0BCF1000F6B
:103DD00001D0042111E012F801CBBCF1000FEED1AB
:103DE000012908D0022903D0032906D1102603E0B7
:103DF0000826012501E0022602253D445A1C02D076
:103E0000002215441FE00122FBE72E2A05D0A2F173
:103E10003007092F03D8FAB20FE0012412E0A2F113
:103E20006107052F01D8573A04E0A2F14107052F99
:103E300002D8373AD2B200E0002200FB062004EBA1
:103E4000840254006D1C2A78002ADED1042913D183
:103E500094B100EE100AB8EE401A00EE104AB8EE27
:103E6000400AC1EE000A00EE103AB8EEC00A20EE99
:103E7000800A10EE100AF0BD5843F0BD2DE9F04164
:103E8000044608781E464FF0FF3522B1242833D16E
:103E90004A7822B930E027280AD02D2803D0A0F193
:103EA0003002092A0BD80846FFF763FF306036E07E
:103EB0004A78002AF3D00846FFF738FFF6E74FF0BC
:103EC0000008242806D0B8B100270D460C46222849
:103ED00014D01EE04A78002AF6D000232046491C60
:103EE000A26D00F049FC010006D0204600F0BCF8AD
:103EF00030604046BDE8F0812846FBE76C1C254653
:103F000007E05C280DD0222811D0E8557F1CBFB2F5
:103F1000641C20780028F4D105F807803560002063
:103F2000E8E72046FFF702FFE855641CEEE705F8D6
:103F30000780EBE72DE9F04F8BB00C4683469A469D
:103F40001546202103A8FCF7EBF9A0786E1E00F0BF
:103F50000F07B74200DC374600254FF0FF380DF160
:103F60000C090AE00AEB850009EB85034168002291
:103F70005846FFF783FFB0BB6D1CB542F2DB082F3C
:103F80003DD2DFE807F004090D12181E2631A068A3
:103F900080470BB0BDE8F08FA16803988847F8E729
:103FA000DDE90301A2689047F3E703ADA36895E854
:103FB00007009847EDE703ADA46895E80F00A04718
:103FC000E7E7A468079803AD009095E80F00A047C5
:103FD000DFE7A468DDE9070103ADCDE9000195E85D
:103FE0000F00A047D5E70AE007ABA46893E80700F5
:103FF0008DE8070003AD95E80F00A047C9E74046EC
:10400000C7E7C0687047000000B500210B4A3023A5
:104010005354491CC9B20929FAD3417801F00F0160
:10402000012903D9072901D9082901D8406800BD11
:104030004068024900F00CFE004800BDF01400206A
:104040000849002051F8202032B192F860209207F0
:1040500002D551F820007047401C00B20528F1DB62
:1040600000207047DC1400204A78002002F00F0284
:10407000921E062A06D2DFE802F003060A0D0D0F93
:104080008868006870478868B0F9000070478868E1
:1040900000787047886870478868416809B100688F
:1040A00008470020704700002DE9F05F5FEA010932
:1040B000054649D0A86B1824002710F47F4F03D081
:1040C00000246FF0FF070AE010F47F0F02D00824ED
:1040D000274F04E0000E02D010244FF07F47002647
:1040E000B246D5F8588033E008EB061B9BF8010078
:1040F00000F00F00092829D159462846FFF7F1FCA6
:1041000020BBDBF80400AB6B00EA070199421DD12C
:10411000FF2202FA04F1084009FA04F1884215D19D
:104120000B434FF00009AB6334B1A4F10801DBF895
:1041300004008A40104209D108EB0610816809B1D9
:1041400028468847C5F838A0BDE8F09F761C36B2EF
:10415000B5F85C00B042C7DCB9F1000FF4D04946B5
:104160002846C5F838A0BDE8F05F00F08FBA00001F
:104170000000FFFF10B50B460446FFF761FF002863
:104180000BD0012C05D008DD5968BDE8104000F0C7
:104190008BBDBDE8104000F061B910BD70B50025C1
:1041A0000446002918DDB4F95430A3F10100A4F845
:1041B0005400B4F85010B4F85200814201D90A46B4
:1041C00000E002465242934212DC814200D9084686
:1041D0004042A4F854000BE009DAB4F85400401C43
:1041E00000B2A4F85400002802DDA4F8545070BDB9
:1041F0002046FFF79DFCB4F95400C0B1B4F852104A
:1042000008440521401D90FBF1F201FB120004EB74
:104210008000C16B206900F05BFCA0810028E6D023
:10422000E08120462169BDE8704000F0D7BDA5813E
:10423000E58170BD70B500250446A0F85450B0F873
:10424000500058B1B4F85200216900B9052004EBC0
:104250008000806BFCF776F800281ED0B4F852007E
:10426000216904EB8000C06B00F032FC20B1B4F88F
:104270005200401CA4F85200B4F85000401C80B218
:10428000A4F85000052802D90520A4F85000B4F87D
:104290005200052801D3A4F8525070BD10B5044651
:1042A0000020A081E0810B46206094F8601041F06E
:1042B000010184F860100621B2FBF1F12361A186AF
:1042C000A4F85400A4F85000A4F85200A28E411C97
:1042D00002FB013204EB8000C26308B20528F5DB63
:1042E00011481249A065081A0009A4F85C00104999
:1042F000002000BF51F820209AB1401C00B20528D0
:10430000F8DB00230BA12046A26D00F035FA014630
:10431000204600F069FA2046BDE81040012100F077
:10432000EFBC41F82040ECE790BA0108D0BB01088F
:10433000DC1400206C65747465720000F8B50446E6
:104340008089A28E521E90420EDB3648416820467C
:1043500000F044FD0121204600F0D2FC20462169F6
:10436000BDE8F84000F03ABDE2890023824217D14F
:10437000256900F10102A2812954A2892069835490
:10438000E08900F10100E08194F86000C00700D1ED
:104390002A218DF80010A26E012168469047F8BDD1
:1043A000FDD2801A00B206E0E58922691544421E5A
:1043B000AE5C465510B20028F6DCE0892569421C47
:1043C000E2812954A0892169401C80B2A0810B544C
:1043D000E089401E05B20FE094F86000C00702D0EB
:1043E0002069405D00E02A208DF80000A26E0121C6
:1043F000684690476D1C2DB2A089A842ECDCE1898B
:1044000080B2401A05B2082608E000BF8DF80060AF
:10441000A26E0121684690476D1E2DB2002DF5DC7D
:10442000F8BD00002400002010B5FFF709FE0028A9
:1044300003D0BDE8104000F0B1B810BD38B5044657
:10444000C089002809D008208DF80000A26E012143
:1044500068469047E089401EE08138BD2DE9F04173
:104460000646876D0F488168304600F0B7FC00248F
:1044700012E000BF07EB0415687800F00F00012878
:1044800008D829463046FFF72CFB18B92946304694
:1044900000F00AF8641C24B2B6F85C00A042E9DC23
:1044A000BDE8F08124000020F8B505460E46084618
:1044B000FFF7AAFD0146284600F090FCC0F1160067
:1044C00004B2002C00DC04245FF020078DF800709B
:1044D000AA6E012168469047641E24B2002CF5D1D3
:1044E000707800F00F012948012901D8016C0CE017
:1044F000072901D8416C08E0082901D8816C04E043
:10450000092901D8C16C00E0016D284600F066FC65
:104510001FA1284600F062FC07240127307807FA23
:1045200004F1084201D0782000E02D208DF8000031
:10453000AA6E012168469047641E64B2002CEDDA31
:1045400013A1284600F04AFC3046FFF75AFDAA6E38
:1045500003460021A2B102E0491C89B2401C047844
:104560001CB10D2C01D00A2CF6D1242906D9242106
:1045700018469047032107A0AA6E00E0184690470E
:104580002846BDE8F84004A100F028BC2400002023
:10459000202000002E2E2E000D0A00002DE9F041F3
:1045A0000646876D10484169304600F017FC00242C
:1045B00014E000BF07EB0415687800F00F0008282E
:1045C0000AD9092808D829463046FFF78AFA18B9C7
:1045D00029463046FFF768FF641C24B2B6F85C0039
:1045E000A042E7DCBDE8F081240000202DE9F04185
:1045F0000646876D10480169304600F0EFFB002445
:1046000014E000BF07EB0415687800F00F000728DE
:104610000AD9082808D829463046FFF762FA18B99F
:1046200029463046FFF740FF641C24B2B6F85C0010
:10463000A042E7DCBDE8F081240000202DE9F04134
:104640000646876D1048C168304600F0C7FB00245D
:1046500013E000BF07EB0415687800F00F00801E20
:10466000052808D829463046FFF73BFA18B92946ED
:104670003046FFF719FF641C24B2B6F85C00A04274
:10468000E8DCBDE8F08100002400002090F8602004
:1046900022F0040280F86020FFF750BE08B5C189FF
:1046A0008289914209D203694A1CC281595C8DF802
:1046B0000010826E01216846904708BD2DE9F04741
:1046C000044690F860000F4640F0020084F8600055
:1046D000497800250A0704F114090BD001F00F00F6
:1046E00001282FD0811E052937D83946204600F0F1
:1046F0000FF938E00025A84617E000BF04EB850657
:1047000070690178222904D180F800807069401C0A
:104710007061FBF710FE80B27169401E0A5C222AAC
:1047200001D101F800806D1CADB2E08EA842E5D841
:10473000BA68E08E494690470AE02946204600F0D4
:104740000DFB10E0E28E4B4639462046FFF7F2FBA8
:10475000054678788006F0D505E0082803D139466B
:10476000204600F041F814F8600F20F0020020709D
:104770002846BDE8F08700002DE9F04706468A4646
:10478000B16DB0F85C00511AA0EB111099461546B6
:1047900087B200241BE000BF05EB041898F8010065
:1047A00000F00F00092810D041463046FFF799F974
:1047B00058B94046FFF728FC0146B9F100000BD07C
:1047C00002465046FBF7CCFD50B1641CA4B2BC427B
:1047D000E2D30020BDE8F0875046FBF7B3FDF3E7D6
:1047E00005EB0410F6E7000070B504460160886828
:1047F0000D4600B3FBF79FFDE8B1E08E022804D31D
:10480000A169A868FBF79EFDA8B194F8600020F0AC
:10481000010000BF0B4D84F860002046A96B00F03A
:10482000DDFA94F86000C0070AD020462968BDE888
:10483000704000F0D3BA94F8600040F00100E9E75E
:1048400070BD0000240000202DE9F0410E4607460F
:10485000FFF7F6FB041E16D000233946A26DFFF7C2
:104860008BFF0E4D010010D0487800F00F00801E25
:1048700006280CD33946204600F0B0FA696A204673
:1048800000F0ACFA0020BDE8F081A96AF7E73246F3
:104890002046BDE8F04100F003B8000024000020ED
:1048A00070B50C460546497818484B0601D5016A93
:1048B00018E001F00F01891E062921D2DFE801F07E
:1048C0000306090C1116A068026019E0A0680280B6
:1048D00016E0A068027013E01146A06800F0F8F836
:1048E0000EE0C169284600F079FA09E0A068836803
:1048F00033B1006810B11146984701E0104698475F
:1049000021462846BDE8704000F002B8240000208F
:10491000FEB523A20C46064607CA8DE807002146CD
:104920003046FFF7A1FB05463046616800F056FAB5
:104930001EA1304600F052FA607800F00F00052802
:1049400023D06946284600F05DF9C0F10B006C46A3
:104950000119304600F042FA15A1304600F03EFA47
:10496000002130206054491C09B20B29FADB69464A
:10497000284600F06DF96946304600F02FFA0EA186
:10498000304600F02BFA2846FEBD0CA1304600F060
:1049900025FA2946304600F021FA08A1ECE700008C
:1049A000303030303030303030303000203D20007A
:1049B0002C203078000000000D0A000022000000CA
:1049C0002DE9FF4F0126002484B08946DDF844B06C
:1049D0000094019402942246A0462146A6460394E0
:1049E00004E0069C44F821E0491C09B25945F8DB73
:1049F0000021B9F1000F53D92B4DEA46445C9C428B
:104A000011D0012E04D00EE0002AF7D000241AE0C5
:104A1000D84508DA069C461844F828600026344633
:104A200008F1010821E09C4201D0202C00D10EB1F8
:104A300000241AE0441800F801E06478202C2BD000
:104A4000012629E092B105EB440C475C9CF801C0BB
:104A500067450AD10AEB020715F814C017F8017C64
:104A6000674502D1521ED2B20EE0475C15F814C061
:104A7000674505D10AF802C0521C02F00F0203E09C
:104A8000641C14F0FF04DDD0445C5C2C04D1441899
:104A900064780CB1491C89B2491C89B24945B3D329
:104AA00008B04046BDE8F08F2000002030B5044635
:104AB0000020024605E0AB4209D1401C521C80B2E6
:104AC00092B2A35C002B02D08D5C002DF3D130BDDF
:104AD0000246002002E01354401C80B20B5C002B05
:104AE000F9D10021115470472DE9F05FB0F83480FE
:104AF0004FF00009818904464D4631B12069CA460C
:104B0000564600F801A0A76D3BE02046FFF7A6FC43
:104B10002046BDE8F05F012100F0F2B807EB061176
:104B20008B462046FEF7DDFF48BB5846FFF76CFA80
:104B300001462069FFF7BAFFA18988421FD1D5B18C
:104B4000012D03D126A1204600F048F907EB0919F1
:104B500049462046FFF7A8FC5846FFF755FA83461A
:104B60004846FFF751FA5946FFF7A0FF41468045F6
:104B700000D8084680466D1C1FFA86F9ADB2761C37
:104B800036B2B4F85C00B042C8DC002D26D0012D4E
:104B900002D12046FEF7CCFF07EB09100646FFF7CF
:104BA00033FA01462069FFF793FFA081012D09D94F
:104BB00031462046FFF778FC0121204600F0A0F89E
:104BC000A4F80C80A289216901F802A0A089E081E3
:104BD00020462169BDE8F05F00F000B9BDE8F09F14
:104BE0000D0A000008B50446626E002AFCD00121BF
:104BF000684690470128F7D19DF800102046FFF73E
:104C000053FAF1E730B50B22031E00DA43420024C9
:104C1000CC720A240AE000BF93FBF4F504FB1535BF
:104C200093FBF4F3521ED2B230358D54002BF3D1E6
:104C3000002802DA4FF02D0002E005D14FF03000DD
:104C4000A2F10102D2B28854C2F10B0040B230BDD1
:104C5000082200230B720AE000F00F03092B01D990
:104C6000573300E03033521ED2B200098B54002873
:104C7000F2D1C2F1080040B270470121FFF78EBAAD
:104C800010B5FFF7DDF9002803D0BDE81040FFF7AD
:104C9000ADBC10BD10B5FFF7D3F9002803D0BDE8B7
:104CA0001040FFF7CBBC10BD70B505460023826DE8
:104CB000FFF762FD0400104817D0C16A284600F0D3
:104CC0008DF82046FFF7A0F90146284600F086F847
:104CD0000AA1284600F082F82046FFF792F9014623
:104CE000284600F07BF805A100E081692846BDE870
:104CF000704000F073B80000240000200D0A00008E
:104D000010B5044690F86000C00719D019B10EA183
:104D1000204600F063F820684168204600F05EF805
:104D20000AA1204600F05AF8A16801B908A120465E
:104D300000F054F807A12046BDE8104000F04EB83E
:104D40000548016BF7E700000D0A00003A0000007B
:104D50002F0000002420000024000020FEB516A231
:104D60000D46064607CA8DE8070016A1304600F03A
:104D700035F869462846FFF745FFC0F10B006C4641
:104D80000119304600F02AF811A1304600F026F84B
:104D900000223020A054521C12B20B2AFADB6946C2
:104DA0002846FFF755FF6946304600F017F80AA17C
:104DB000304600F013F8FEBD303030303030303047
:104DC0003030300052657475726E3A200000000079
:104DD0002C203078000000000D0A000010B50B46B2
:104DE000846E00211A461CB9002010BD491C89B2EE
:104DF00012F8010B0028F9D11846A04780B210BD67
:104E00001CB5042000F016FD11494FF40072086033
:104E10001148104981661149416600F16C01FFF7A4
:104E20003DFA00210520CDE900010B4B4FF48072C3
:104E30000BA10D4800F058FE012807D00B480121B6
:104E4000009000230AA2881EFEF702FB1CBD000092
:104E500078000020C14E0008FC140020A14E00087C
:104E60007368656C6C000000E54B0008C3B6010870
:104E70001B5B33316D45282564292025733A1B5B64
:104E800033396D207368656C6C207461736B2063BB
:104E900072656174206661696C65640D0A000000CA
:104EA00010B50C460A4601460A230448FCF7D6FD15
:104EB00008B1002010BD20B210BD000094140020E5
:104EC00010B50C460A46014640F2FF130248FCF7B3
:104ED0001DFE20B210BD000094140020D0E9013264
:104EE00001699A60D0E901235A604A68824201D17F
:104EF00082684A60002202610868401E08600868F3
:104F000070470000034B036003F1540008608020E9
:104F100010607047F810002000F108014FF0FF32D8
:104F2000C0E90112C16001610021016070470021E8
:104F30000161704730B50B685A1C02D000F10802BD
:104F400002E0026904E02246546825689D42FAD9CD
:104F500053684B6099608A60516008610168491C20
:104F6000016030BD42684A6093688B609368596005
:104F7000916008610168491C01607047502080F30E
:104F80001188BFF34F8FBFF36F8F0A494868401CE9
:104F9000486001280CD10848006810F0FF0F07D0C6
:104FA000502080F31188BFF34F8FBFF36F8FFEE760
:104FB00070470000E800002004ED00E00849486860
:104FC00028B1401E486001D180F3118870475020FD
:104FD00080F31188BFF34F8FBFF36F8FFEE70000A0
:104FE000E800002070B500282AD0164DA0F1080472
:104FF00060686969084207D1502080F31188BFF3C7
:105000004F8FBFF36F8FFEE722683AB1502080F3D5
:105010001188BFF34F8FBFF36F8FFEE78843606047
:1050200000F0A6F860686968084468602046FEF7EA
:1050300051FC2869401C2861BDE8704000F0A6BE04
:1050400070BD0000C80000204FF0E0200021016189
:10505000816105494FF47A720968B1FBF2F1491E8A
:1050600041610721016170478800002010B50200EE
:1050700014D00F48006B38B1502080F31188BFF373
:105080004F8FBFF36F8FFEE700F072F800211046DC
:10509000FEF778FA00F07AFE002807D105494FF0B4
:1050A00080500860BFF34F8FBFF36F8F10BD0000BB
:1050B0008C00002004ED00E002490A6A0260C96821
:1050C000416070478C00002001490120C861704791
:1050D0008C00002010B50C4650B109490968183100
:1050E000FFF728FF2046BDE810400121FEF74ABA2D
:1050F000502080F31188BFF34F8FBFF36F8FFEE70F
:105100008C00002010B586B00024039405AA04A9E1
:1051100003A80494FFF7F6FEDDE903010094CDE94E
:10512000011000230EA11048059A00F00AFD0F4956
:105130000028C86211D0502080F31188BFF34F8F30
:10514000BFF36F8F4FF0FF30886201204861CC6061
:1051500006B0BDE8104000F0DDBA06B010BD00009A
:1051600049444C4500000000B13700088C00002085
:105170000248016B491C0163704700008C0000204D
:105180001448016B11B10121C16170470021C16157
:105190000169B1FA81F1C1F11F0101EB81020E49F0
:1051A00051F822306BB101EB820101F108034A682A
:1051B00052684A609A4201D152684A60D1680160DF
:1051C0007047502080F31188BFF34F8FBFF36F8F6C
:1051D000FEE700008C0000207C18002070B50D4612
:1051E0000446042300F5A0620021FDF729FA94F893
:1051F0000015A278914213D0FF2911D094F801151F
:1052000005290DD194F80225914309D194F803158D
:10521000C90605D50121297094F80015A17070BD4B
:1052200094F80315090602D594F8021508430021E5
:10523000297070BD2DE9F0471C4603F10C0527A32A
:105240008A46804686B00BCB02AE86E80B0040F261
:10525000AC50854201D9FF263CE0100A8DF80800C9
:105260008DF8092020098DF80A0020018DF80B0027
:105270000C2302AA42F6F4714046FDF72BFA0646CB
:105280000321FF20CDE900014FF430530122042116
:105290004046FDF70AFF40EA060708F5A0622B46E4
:1052A000914642F604414046FDF7CAF940EA070636
:1052B000A9B24846FDF7E4F9002120B208E000BF9A
:1052C00008EB010292F804350AF80130491C09B2D2
:1052D0008142F5DB06B03046BDE8F08700000000F3
:1052E0000000000F000200082DE9FC5F8A462FA194
:1052F0000746D1E9008603F10800010A61F3174669
:1053000060F31F661C4642F6F470001B80B20090EA
:1053100003F10C004FF0000940F2AC514D468346BA
:10532000884201D9FF253DE0100A60F3070562F3CA
:105330000F25200960F31745200160F31F65214602
:105340005046FDF79DF94FF0FF3000FA84F005E07C
:105350001AF800103A18401E82F8041500B200280E
:10536000F6DA3919C7F80055C1F80485C1F808659F
:1053700007F5A0625B4638460099FDF7ABF940EAB5
:1053800009060321FF20CDE900014FF4305301222B
:1053900004213846FDF789FE40EA060521465046BD
:1053A000FDF76EF92846BDE8FC9F00000000000FE5
:1053B000050100002DE9F0410C4600F5A06205460C
:1053C000164600214368FDF73BF9074695F80005AE
:1053D000A870A88881B23046FDF752F910264CE03B
:1053E000A9194FF4A060405800F00F02931E0B2B38
:1053F00004D2C0F30B1312FB03F201E0C0F30B1253
:105400009046000C4DF6C432831A90426ED017DCE1
:1054100045F2D053A0EB0302984225D007DC00F6FA
:105420004C30B0F5C04018D01C2824D119E0A2F5AA
:105430002272B2F500426DD0B2F54B7F1BD151E024
:10544000B3F5407F56D0B3F5607F57D0B3F5906F7A
:1054500058D0B3F5986F0ED158E091F80C05207034
:1054600009E04246201D02E0424604F5A27001F226
:105470000451FAF73CFF4644361D6868B042AFD885
:105480005FF0000004EB8001401C4A68D20A4A60C9
:105490004028F7D35FF0000004EB4001B1F9C423CA
:1054A000D31702EB93729210A1F8C423221892F83A
:1054B00044345B0882F84434B1F84423D209A1F89B
:1054C000442304EB8001401CD1F84422D20AC1F8E5
:1054D00044224028E0D30020FF21221892F8042122
:1054E000E2B11EE0424604F58270C0E7424604F590
:1054F0001170BCE7424604F55170B8E7424604F526
:105500007170B4E7424604F24440B0E7424604F208
:105510008440ACE7424604F2C440A8E7021982F88E
:105520008414401C4028D8D300204FF6FF7200BFDF
:1055300004EB8001401CD1F8D0342028B3FBF2F3F7
:10554000C1F8D034F4D395F8080505F2FC42010205
:1055500095F809050843696805F2FD458A5C495DCF
:1055600041EA0221884201D047F002073846BDE8EF
:10557000F08170B50D460446082345F2504200F50F
:10558000A061FFF757FE94F8001594F8012511FB70
:1055900002F1297070BD0000F0B597B004460025F7
:1055A0005AA0079508950068159002A92046FFF7B4
:1055B000E0FF064665605648FF27A7700FC803AD99
:1055C00085E80F0052493022103109A8FAF78FFE02
:1055D0000398002500F6F87009AA039052F82500F8
:1055E00000B36B0903A905F01F0C51F82310012328
:1055F00003FA0CF3194215D000F00F035B1E02EB07
:1056000085010C2B7CD29DF8083063F30F100860E5
:105610000888636800F00F01C0F30B1011FB003025
:10562000001D60606D1C0C2DD8D3606830231830CD
:1056300060604DF6801209A92046FFF755FE06432B
:105640006D1C6068CDE9070508234DF6681207A9AF
:105650002046FFF749FE064310234DF6701203A9BA
:105660002046FFF741FE40EA060547F6FF76002296
:1056700031462046FDF71AF8054305220921204648
:10568000FDF714F80543022231462046FDF70EF8D7
:105690000543042315AA42F6FC712046FDF71AF8CB
:1056A00005430320CDE900704FF43053012204215B
:1056B0002046FDF7FAFC40EA050704F5A0610C233B
:1056C00045F240420E462046FFF7B4FD40EA07058A
:1056D0003089616880B2814201D045F0FF0508231E
:1056E0004EF2C40231462046FFF7A4FD94F8061599
:1056F0002843002901D040F0030017B0F0BDFFE7B8
:105700006168C0F30B1008448AE700000003000042
:10571000A0B501081CB537480168374A914207D146
:10572000502080F31188BFF34F8FBFF36F8FFEE7D8
:1057300000683149491E884207D1502080F3118802
:10574000BFF34F8FBFF36F8FFEE72C4908780190AE
:10575000FF20087008788DF800009DF800009DF883
:10576000002000F0F000904207D0502080F3118814
:10577000BFF34F8FBFF36F8FFEE79DF80000204C03
:1057800000F0500020700720A06005E09DF8002088
:1057900052008DF80020401E9DF800201206F5D41E
:1057A000A060032807D0502080F31188BFF34F8FEB
:1057B000BFF36F8FFEE74FF44070A0600198087050
:1057C0000C482030016841F470010160016841F02B
:1057D00070410160FFF738FC00206060FAF708FDB7
:1057E0000848016841F040410160FAF7EDFC0020F3
:1057F0001CBD000000ED00E071C20F4100E400E0BC
:10580000E800002034EF00E010B5502080F311884C
:10581000BFF34F8FBFF36F8F00F0CCF918B104497D
:105820004FF080500860002080F3118810BD000008
:1058300004ED00E010B502460021012000F005F85B
:105840000446FDF7E5FF204610BDF8B517460E46A5
:10585000050013D005FB06F04830FEF7BBF8040046
:105860000AD0002084F8460004F148023B46314645
:1058700028460094FDF7D7FF2046F8BD502080F35E
:105880001188BFF34F8FBFF36F8FFEE770B50D46E2
:10589000040025D0FFF772FBD4E90F20216802FB3A
:1058A0000011A1600021A163216861600A46D4E96A
:1058B0000F01401E00FB0121E16021464FF0FF3047
:1058C00001F8440F487004F110008DB1FFF724FB7C
:1058D00004F12400FFF720FBFFF770FB012070BDEF
:1058E000502080F31188BFF34F8FBFF36F8FFEE717
:1058F00021690029F0D000F00FFA0028ECD004490B
:105900004FF080500860BFF34F8FBFF36F8FE3E716
:1059100004ED00E02DE9FF4782B01D468A464FF0B6
:105920000008040003D0BAF1000F08D011E05020A5
:1059300080F31188BFF34F8FBFF36F8FFEE7206CAA
:1059400038B1502080F31188BFF34F8FBFF36F8FB2
:10595000FEE7022D0AD1E06B012807D0502080F32A
:105960001188BFF34F8FBFF36F8FFEE700F014F97C
:105970003F4F4FF000094FF0805648B9049838B1B6
:10598000502080F31188BFF34F8FBFF36F8FFEE776
:10599000FFF7F4FAA06BE16B884207D3022D05D024
:1059A0000498D0B1B8F1000F1AD01EE02A46514633
:1059B0002046FDF787FE616A19B104F1240000F06A
:1059C000ABF920B13E60BFF34F8FBFF36F8FFFF78E
:1059D000F5FA012006B0BDE8F087FFF7EFFA22E004
:1059E0006846FFF769FB4FF00108FFF7E7FAFFF79A
:1059F000BFFBFFF7C3FA94F94400401C01D184F8BF
:105A0000449094F94500401C01D184F84590FFF77B
:105A1000D5FA04A9684600F02DF830B12046FDF70C
:105A2000A3FF00F0B3F90020D4E7FFF7A7FAA06BBB
:105A3000E16B884213D1FFF7C1FA04F11000049919
:105A4000FFF748FB2046FDF78FFF00F09FF9002885
:105A50009ED13E60BFF34F8FBFF36F8F98E7FFF784
:105A6000ADFA2046FDF780FF00F090F990E70000C6
:105A700004ED00E02DE9F0410C46050011D0C4B161
:105A8000FFF77CFA174BDA686E682068911B471C99
:105A900017D02F681B6A9F4219D0964217D801244D
:105AA00010E0502080F31188BFF34F8FBFF36F8F4A
:105AB000FEE7502080F31188BFF34F8FBFF36F8F45
:105AC000FEE70024FFF77AFA2046BDE8F08188421D
:105AD00005D9401A20602846FFF7EEFAF1E70020CA
